:10000000CDC10000E8C1000000C20000E4C1000052
:10001000E2C10000E0C10000DEC10000DCC1000060
:10002000DAC10000D8C100000C94D71AD4C1000076
:10003000D2C10000D0C10000CEC10000CCC1000080
:10004000CAC10000C8C10000C6C10000C4C1000090
:10005000C2C1000053005400550056005F0060000C
:10006000610057005C005D005E00A80059005A0066
:100070005B005800000062006300115001000100A5
:100080000100005CC95CC85CCA5CC35CC75CC65C40
:10009000CB5C0100C95CC85C0100C45C00000100CD
:1000A000010010501E0F052223252628292A2C2D59
:1000B0002F3032333536383A3B3D3E404243454798
:1000C000494A4C4E5051535557595A5C5E606264D0
:1000D0006668696B6D6F71737577797B7D7F8183DE
:1000E0008587898A8C8E90929496989A9C9E9FA1DF
:1000F000A3A5A7A8AAACAEAFB1B3B4B6B8B9BBBC00
:10010000BEBFC1C2C3C5C6C7C9CACBCCCDCED0D174
:10011000D2D2D3D4D5D6D7D7D8D9D9DADADBDBDB6C
:10012000DCDCDCDCDCDDDDDDDDDCDCDCDCDCDBDB0D
:10013000DBDADAD9D9D8D7D7D6D5D4D3D2D2D1D061
:10014000CECDCCCBCAC9C7C6C5C3C2C1BFBEBCBB5E
:10015000B9B8B6B4B3B1AFAEACAAA8A7A5A3A19FD6
:100160009E9C9A98969492908E8C8A89878583819A
:100170007F7D7B79777573716F6D6B69686664627B
:10018000605E5C5A5957555351504E4C4A49474549
:100190004342403E3D3B3A3836353332302F2D2CEA
:1001A0002A29282625232203020100040506070A1E
:1001B00009080B0C0D0E100F0001010101010101D6
:1001C000010102020202020202020203030303030C
:1001D00003030304040404040404050505050506DB
:1001E0000606060607070707070808080809090999
:1001F000090A0A0A0B0B0B0C0C0C0D0D0D0E0E0E42
:100200000F0F0F10101111111212131314141515D2
:1002100016161717181819191A1A1B1B1C1D1D1E44
:100220001E1F202021222223242425262627282998
:10023000292A2B2C2D2D2E2F3031323233343536C6
:100240003738393A3B3C3D3E3F40414243444546C6
:100250004748494A4C4D4E4F5051535455565859A2
:100260005A5B5D5E5F616264656668696B6C6D6F49
:100270007072737577787A7B7D7E808283858788BC
:100280008A8C8E8F91939596989A9C9EA0A2A3A5F6
:10029000A7A9ABADAFB1B3B5B7BABCBEC0C2C4C6F7
:1002A000C9CBCDCFD1D4D6D8DBDDDFE2E4E7E9EBB3
:1002B000EEF0F3F5F8FAFDFF09023B00020100A0A1
:1002C000FA090400000103010100092101010001F4
:1002D0002240000705810308000109040100010311
:1002E00000000009210101000122320007058303FB
:1002F00008000112011001000000083FB3115B0269
:100300000001020001120353004B0059004C004948
:100310000047004800540000000A035A004F004301
:1003200000490000000403090405010980A10185BA
:100330000319012AB700150126B700950175108130
:1003400000C0050C0901A101850419012AA00215AC
:100350000126A002950175108100C005010906A1C2
:1003600001050719E029E7150025019508750181A8
:10037000029501750881030507190029FF1500265C
:10038000FF009506750881000508190129059505E6
:1003900075019102950175039103C00011241FBEE0
:1003A000CFE5D8E0DEBFCDBF11E0A0E6B0E0E4E0ED
:1003B000FFE302C005900D92A230B107D9F723E008
:1003C000A2E0B1E001C01D92AA31B207E1F70E949C
:1003D000EA110C94741F14CEA82FB92F80E090E07E
:1003E00041E050EA609530E009C02D918227979551
:1003F000879510F084279527305EC8F36F5FA8F3C8
:100400000895EADF8D939D930895CF93CFB7CF934F
:10041000DF93C395839BE9F7839B10C0839B0EC03A
:10042000839B0CC0839B0AC0839B08C0839B06C030
:10043000C091F102C395C093F1028EC06F93C09139
:10044000F002DD27C850DD4F2F9365E5839B03C085
:100450002F916F91E1CF0F931F934F9320E040E1D5
:100460005F9300B30C7003FB27F93F9350E03BE030
:1004700039C01C7040642F77012F5F5F1EC0406839
:1004800010B31C702F7752501FC0406400B32F77F9
:100490000C70D1F15F5F00C023C0406210B32F77B2
:1004A0001C7091F15F5F00C025C00C701027515087
:1004B00012F45D5F0000115027952C3F10B3C8F671
:1004C0001C700127015027952C3FC8F642274993FD
:1004D00000B30C7010274F73115027952C3FA8F6CE
:1004E0004695469510B31C7079F001270150279569
:1004F0002C3F98F66B5A60F3315000B3B0F600C051
:1005000010E81ABF00271CC03B503195C31BD040D8
:1005100010E81ABF0881033C21F10B3411F120913E
:10052000ED021981110F1213EDCF4A81441F0936D4
:1005300079F10D3211F0013E29F74F7009F0042FC7
:100540000093F6023F915F914F911F910F912F9170
:100550006F91CAB7C7FD5DCFDF91CF91CFBFCF916C
:1005600018952091F602222369F31091F4021123C9
:1005700009F049C034300AF448C03093F4022093A3
:10058000EF021091F0023BE0311B3093F0023DC0CE
:100590000091F4020130BCF50AE54F7049F4309146
:1005A000790034FD33C000937900CAECD2E032C048
:1005B000433059F0443091F03091D50234FD26C0DB
:1005C0000093D502C6EDD2E025C030910E0334FD74
:1005D0001DC000930E03CFE0D3E01CC03091E102B8
:1005E00034FD14C00093E102C2EED2E013C005272F
:1005F00010E000C0000002BB1AC0052710E0221F57
:100600001DC010E021C04AE502C032ED432FC4E115
:10061000D0E032E011B31C60939A02B311BB5CE0EE
:1006200020E865E320FF052702BB279517951C3FAF
:10063000F0F66695B8F7B1F720FF052702BB2795BE
:1006400017951C3FD0F62795179517FF0527000033
:100650001C3F02BBB0F629913A9519F7037F109120
:10066000F502110FC651D04002BB11F01093ED02FC
:1006700010E81ABF086011B3137F402F437F54E086
:100680005A95F1F702BB11BB42BB5CCF80910601CA
:10069000882369F080910401909105010E94C81A95
:1006A000893E934020F082EEDAD11092060108953F
:1006B0001F93CF93DF93182FC62F0E941418D82FA3
:1006C000882321F0112339F0113071F08D2FDF9143
:1006D000CF911F910895CC2321F089EA1ED2DC2FFF
:1006E000F5CF8AEA1AD2F2CF80910601811104C0B7
:1006F00082EE38D110930601CC2359F08BE232D12F
:100700000E94B01A90930501809304018BE2A7D157
:10071000E6CF81EE27D18BE225D10E94B01A9093CB
:1007200005018093040181EE9AD18BE298D1CECF5E
:1007300081E0089581E00895FDCF08950895FECFEA
:100740000895A5E0B0E0E7EAF3E00C94631E498366
:100750005A833091080189819A81311116C066232C
:1007600089F0222379F0C6D5182F682F89819A81C4
:10077000A0D569817A81812F0E94940F2596E3E0AC
:100780000C947F1EA6D5182FF4CFB4D569817A8139
:10079000F3CFFC01262F40815181628173818481D6
:1007A000D0CF089581E00895CF93DF93EC0160E00E
:1007B000F0DFBE01C4DFDF91CF9108950C94C21029
:1007C00008950C94C41008950895D9D3FDDF2FEF38
:1007D00084E39CE0215080409040E1F700C000009D
:1007E0000895F3DF0C94FB1A0895EFDF0C940E1BB1
:1007F00008950F931F93CF93DF938C0161E0C9DFBE
:10080000EC01B80199DF811106C080E0DF91CF9142
:100810001F910F910895B801CE010E948B19882372
:10082000A1F3B801CE010E94D016882371F3B8015C
:10083000CE010E94FF18882341F3B801CE010E9427
:100840002D16882311F3F8018281882361F0CB35BE
:10085000FDE5DF07E9F050F4C115ECE5DE0781F0B6
:10086000CF3DDC4579F0C80163DFD0CFCD358DE5D4
:10087000D80759F080F0C83ADD45A9F7B6DFC5CFF3
:10088000B0DFC3CF0E94EE0DF9CF0E942F0DEBCF4A
:100890000E94380DE8CF0E943B0DE5CF0E947F1AE1
:1008A00018D00C940815089517D00E94C9150C94FF
:1008B000831A08950895FECF089581E00895FDCF2D
:1008C00008950895CF93C82FF6DF8C2FF8DFCF91CE
:1008D000089580E0F7CF08950E94E619F3CF0895B8
:1008E0000E94E61990910701981719F0809307016B
:1008F000E9CF0895ABE0B0E0E0E8F4E00C94641ECA
:100900004F83588769877A878B8761110E949D0C76
:100910001E821D8285E0FE013796DE011196019050
:100920000D928A95E1F78C819D81892B59F449813B
:100930005A816B817C818D819E812ED72B96E2E03E
:100940000C94801E89819A8189238F3F81F3CE0187
:10095000019628DF8111EBCFF1CFFC0180819181DD
:1009600002C50895CF93C82F8823A9F08238A9F42F
:100970000E94E61981FD0FC089E397D7FCD72FEFBE
:1009800081EE94E0215080409040E1F700C00000EB
:1009900089E393D7F0D7CF910895833891F40E94DB
:1009A000E61980FDF8CF83E580D7E5D72FEF81EEFC
:1009B00094E0215080409040E1F700C0000083E5C2
:1009C000E8CF843891F40E94E61982FDE4CF87E4F1
:1009D0006CD7D1D72FEF81EE94E02150804090402A
:1009E000E1F700C0000087E4D4CF8CEF8C0F813A90
:1009F00078F46C2F80916400909165000E943C1AFD
:100A0000882319F08C2F59D7B6D78C2F4ED7C2CF49
:100A100080E28C0F883040F4C77081E001C0880FFD
:100A2000CA95EAF76DD7B6CFEBE5EC0FE33040F4AB
:100A3000F0E0E855FF4F808190E00E94FE19ABCFB7
:100A4000C85AC73108F0A7CFEC2FF0E0EE0FFF1F18
:100A5000E658FF4F808191810E94141A9CCF882311
:100A600009F444C0823859F40E94E61981FF3EC05F
:100A700089E31BD780D789E320D77DC708958338C2
:100A800049F40E94E61980FF31C083E50ED773D781
:100A900083E5F2CF843849F40E94E61982FF26C02C
:100AA00087E403D768D787E4E7CF9CEF980F913AA4
:100AB00018F390E2980F983048F4877091E001C0E5
:100AC000990F8A95EAF7892F21D7D7CF9BE5980F01
:100AD000933028F490E080E00C94FE190895885A31
:100AE000873120F490E080E00C94141A08951F934D
:100AF000CF93DF93182FEB0135DF209731F4812F4F
:100B0000AEDFDF91CF911F9108958FE99FE00197AC
:100B1000F1F700C000002197F0CF70E060E089336A
:100B200011F460E570E0E3CF0895882311F0E8D672
:100B300022C70895882311F0E9D61DC70895B0E0B3
:100B4000A0E0E5EAF5E00C945D1E6C01D62FC72FFE
:100B5000FC011281F580F2949FE0F922C7D6E82EBD
:100B60008823A9F0E12E112391F08C2F807F80340F
:100B700021F080E28D0F8830C0F08091830282FFE7
:100B800014C082E03FD7B2D691E0E82EE926BC2E11
:100B9000B2948FE0B822FBE0FB1508F45DC0EB2DAA
:100BA000F0E0EA58F04E0C944E1EE12CF0CF0C2FE2
:100BB0000F70C07F11F00295007F112381F0002398
:100BC00049F080E28D0F883010F0D11105C0802FE0
:100BD00097D6D1D68D2F3AC0802FA2D6FACF8D2F9F
:100BE0003EDF002309F438C080E28D0F883010F01A
:100BF000D11103C0802F8AD602C0802F97D6BBD6D2
:100C00002BC00C2F0F70C07FC03211F00295007FF7
:100C1000DD2381F0D13009F452C0112309F45CC006
:100C2000FF2009F452C0F601858180FFD3CF8F7079
:100C300085834BC08091830282FD28C0112341F03F
:100C4000002319F0802F5CD696D680E08BDE04C09E
:100C500080E005DF0111CECFEB2DE850FF0B34977C
:100C600018F40E94E6192EDEEE2059F03BD680FDE6
:100C700008C0F601128230D62AD2C6014DD12CD638
:100C800047D2CDB7DEB7E9E00C94791E112369F0A5
:100C9000F11004C055D6802B48DFDECF21E0F212E0
:100CA000F9CF4ED6802B52D6D7CFF11004C05AD6EA
:100CB000802F40DFD1CF31E0F31671F2F8CF11234E
:100CC00031F085E08F1508F4C7CF802FE5CF94E091
:100CD0009F1508F4C1CFECCFFF2051F3D93349F46D
:100CE000FFEF27EE33E0F15020403040E1F700C045
:100CF00000008D2FB4DEB0CF8C2F86958695837043
:100D000069F0813009F0A8CF8D2F9C2F93701111BD
:100D100002C090E080E00E94141A9ECF8D2F9C2F7D
:100D20009370111102C090E080E00E94FE1994CFF0
:100D30008C2F837009F03DC011118ECF4D2F42953D
:100D400046954770440F440F0D2F0F7010E030E0B0
:100D500020E0042E04C0000F111F221F331F0A942D
:100D6000D2F760E070E0CB01D4FF0FC06FE070E01D
:100D700080E090E004C0660F771F881F991F4A9596
:100D8000D2F76095709580959095C695C695C3707D
:100D9000602B712B822B932BC23039F040F4C13081
:100DA00011F048D159CF34D157CF56D155CF2ED18C
:100DB00053CF8695112311F08C2F8170882309F46D
:100DC0004BCF4D2F429546954770440F440F0D2F42
:100DD0000F7010E030E020E0042E04C0000F111F5F
:100DE000221F331F0A94D2F760E070E0CB01D4FFDA
:100DF0000FC06FE070E080E090E004C0660F771FE6
:100E0000881F991F4A95D2F76095709580959095A7
:100E1000C695C695C370602B712B822B932BC23065
:100E200039F040F4C13011F0C9D116CFB5D114CF8B
:100E3000D7D112CF27D110CFCF70112321F08C2F13
:100E400046D18D2F29CF8D2F75DE8C2F61D104CF08
:100E5000D23F49F160F4D03FB9F0D13F81F0112386
:100E600009F441C0F110B6CE8C2F8F7120C0D33F52
:100E700001F1D43FA1F78091830282FD22C08C2F23
:100E80008F71112319F313C0112341F084E08F15E2
:100E900008F4E2CE8C2F8F715ED1DECE95E09F15E7
:100EA00008F4DACEF7CF8C2F8F711111CFCF0FD17D
:100EB000D3CE112321F08C2F8F71F4D0CDCEEDD075
:100EC000CBCE112339F0CF718C2F01D163E08C2F61
:100ED0007FD5C2CE81E096D5E1E0EF1508F0BCCE1B
:100EE00082E090D5B9CEF110F9CE8C2F8F71AECFB4
:100EF0000F931F93CF93DF93EC01688179818A81EF
:100F00003BD28C017FD181D0B801CE0118DEDF91B8
:100F1000CF911F910F910895CF93DF93EC018B81B7
:100F20009C81892B29F08881998189238F3F41F405
:100F3000DF91CF910895CE01DBDFCE0135DCF8CF14
:100F4000CE0157DC8111F7CFD1D4882389F38A8170
:100F5000882371F38091830282FFEACF82E052D529
:100F6000E7CF90E080E00E94FE1990E080E00E94D0
:100F7000141AE3D400C50895A8D4F3CF0895CDD4AE
:100F8000FBCF089592959F70963091F058F4925F40
:100F90009F70923058F4803F19F030F4883E30F45E
:100FA00081E008959A5FF4CF843FD1F380E0089503
:100FB000883EB0F3813FD1F7F3CFFC01808191816E
:100FC000D2D1E0CF0895A5E0B0E0E9EEF7E00C94CF
:100FD000641E2596E2E00C94801EA6E0B0E0E3EFEC
:100FE000F7E00C94641E2696E2E00C94801E0895AF
:100FF000FECF0895FDDF60931C0170931D01809367
:101000001E0190931F01ADCF08950895F3CF089569
:101010000F931F9300911C0110911D0120911E013F
:1010200030911F01602B712B822B932BE3DF1F91DB
:101030000F9108950F931F9300911C0110911D01B2
:1010400020911E0130911F0160237123822393237D
:10105000D1DF1F910F9108950F931F9300911C01F1
:1010600010911D0120911E0130911F0160277127F1
:1010700082279327BFDF1F910F910895B8CF08955E
:10108000FDCF0895FDDF60931801709319018093DF
:101090001A0190931B0165CF089560E070E0CB01C9
:1010A000F1CF08950F931F9341E050E060E070E0AE
:1010B0008A019B0104C0000F111F221F331F8A9554
:1010C000D2F7C901B801DEDF1F910F9108950F9388
:1010D0001F9341E050E060E070E004C0440F551FF2
:1010E000661F771F8A95D2F7809118019091190198
:1010F000A0911A01B0911B018A019B01082B192BA9
:101100002A2B3B2BC901B801BDDF1F910F91089518
:101110000F931F9341E050E060E070E004C0440F83
:10112000551F661F771F8A95D2F7CB01BA016095CC
:10113000709580959095009118011091190120915A
:101140001A0130911B0160237123822393239ADFBC
:101150001F910F9108950F931F9341E050E060E0BD
:1011600070E004C0440F551F661F771F8A95D2F7A1
:101170008091180190911901A0911A01B0911B0161
:101180008A019B01082719272A273B27C901B80193
:1011900079DF1F910F9108950F931F93009118010C
:1011A0001091190120911A0130911B01602B712BB4
:1011B000822B932B67DF1F910F9108950F931F933D
:1011C000009118011091190120911A0130911B0111
:1011D000602371238223932355DF1F910F9108957C
:1011E0000F931F93009118011091190120911A017A
:1011F00030911B01602771278227932743DF1F91BE
:101200000F9108950895262F277091E001C0990F3E
:101210002A95EAF723E0769567952A95E1F725E088
:10122000269FF001279FF00D1124E40FF51F50E0D9
:1012300040E0682F70E08191DF0111979B01042E3F
:1012400002C0369527950A94E2F721702195282748
:10125000292328272C934F5F5F4F4530510559F7BD
:101260000895A82FA77023E0969587952A95E1F712
:1012700025E0289FF001299FF00D1124E60FF71FAC
:1012800050E040E080E0219130E00A2E02C0369527
:1012900027950A94E2F721703327042E01C0220F0C
:1012A0000A94EAF7822B4F5F5F4F4530510559F79B
:1012B0000895262F953060F4843050F434E0939FE5
:1012C000B0011124680F711D49E051E0822F9BCFBE
:1012D0000895953068F4843058F444E0949F900168
:1012E000112469E071E0820F932F911DBACF089508
:1012F00080E00895B0E0A0E0E0E8F9E00C945D1E25
:101300008C01C0901801D0901901E0901A01F09062
:101310001B0180911C0190911D01A0911E01B091B3
:101320001F01C82AD92AEA2AFB2ACFE1D0E0BC2E25
:10133000D701C6010C2E04C0B695A7959795879541
:101340000A94D2F780FD09C0219788F7B12C8B2D24
:10135000CDB7DEB7E9E00C94791EB8018C2FFFD52C
:10136000019791F3F4CFCF93DF93EC01C3DFBE017C
:10137000F6D5DF91CF9108951F93CF93DF93EB01C3
:1013800090910801992331F0CB01EDDFDF91CF91EE
:101390001F910895882351F0CB01ACDF182F682FDF
:1013A000CE0187DFBE01812FDAD5F0CFCB0191DFEF
:1013B000182FF8CF1F93CF93DF93C091200116E031
:1013C000809121018C1304C0DF91CF911F9108956A
:1013D000D0E01C9FF0011D9FF00D1124EE5DFE4F2B
:1013E000408151816281738184819581F6DD2196EE
:1013F000C770E6CF40915201509153016091540162
:10140000709155018091560190915701E6CD089554
:101410001F93CF93DF9380915701807F09F047C0DE
:1014200080915401882309F442C080912001C09129
:1014300021016091520170915301A0915501B09129
:101440005601D62FD72316E0C81789F190E01097E0
:1014500011F0DF3F19F401968770F6CF189F9001C5
:10146000199F300D1124F901EE5DFE4F41814713A4
:10147000F2CF40814613EFCF42814111ECCF43813F
:1014800054814A1B5B0B483C510528F7809157015A
:101490008F70806180935701F901E95DFE4F808173
:1014A0008F708061808382E591E036DD83DFDF919C
:1014B000CF911F910895A1E1B0E0E1E6FAE00C942C
:1014C0005C1E8C0185E0F801DE011D9601900D92F5
:1014D0008A95E1F7F801E28082E5C82E81E0D82EF6
:1014E00060915501709156016115710509F43BC178
:1014F0009091520120915301892F82238F3F09F44B
:1015000032C140815181A380B480F0905401F50133
:10151000E61BF70BFF2009F4DCC080915701382F40
:10152000307FE83CF10508F09AC0311169C0FE2C0B
:10153000251314C0941312C0E11010C08F70806185
:101540008093570157DFC601E7DC80915701F8010E
:1015500085838F2D6196EAE00C94781EA114B10466
:1015600029F0842F85238F3F09F013C180E0F82FE5
:10157000F170DF2E80FF3AC080912001209121017F
:1015800036E0821314C04D875E878D859E85EBDE25
:10159000292F22952F702230F0F0243018F59F70FB
:1015A000F1F0F8019581907FD1F4D12C1DC090E02D
:1015B000389FF001399FF00D1124EE5DFE4F6181DF
:1015C000651306C06081641303C06281E6120EC019
:1015D00001968770D6CF9F7011F0882331F3805E1B
:1015E000883018F3C80198DCFD2CB3CFEE2009F445
:1015F000B0CF80915701816080935701F12CA9CF22
:10160000251306C0941304C0F801EE2009F47DC030
:10161000C801D3DC882301F1EE20F1F0809157015D
:10162000803268F0209152013091530138872F8326
:101630001986BB86AA868C87CE0107966DDC86E06C
:10164000F801A2E5B1E001900D928A95E1F7E0DEA4
:10165000D1DEFF24F3947DCFC8015EDCFACF3111D7
:1016600010C07A2DB98AA88A6E2D8989ACDC82E5F2
:1016700091E052DC86E0F60111928A95E9F7BADE34
:10168000BDCF25130EC094130CC0E1100AC0F801A1
:101690008583C80141DC86E0F60111928A95E9F75D
:1016A00058CFC8018ADC8823B9F2EE20A9F28091D4
:1016B0005701803208F4C3CF209152013091530179
:1016C0003A8329831B82BD82AC828E83CE01019630
:1016D000B5CFE83CF10508F03AC0FE2CEE2009F445
:1016E000BBCF251328C0941326C08091570180FDDD
:1016F00019C0982F907FB1F0F8018583903F31F0A9
:10170000982F907F905F8F70892B8583C80104DCB0
:1017100086E0F801A2E5B1E001900D928A95E1F72B
:1017200069DE17CF86E0F801A2E5B1E001900D92E5
:101730008A95E1F70ECFC80140DC811180CF8091FE
:101740005701816080935701C801E6DB02CF7A2DF3
:10175000B98AA88A6E2D898936DC86E0F601119255
:101760008A95E9F7DDCFEE2009F476CFC80125DCB4
:10177000F82E882309F470CF86E0F801A2E5B1E0E5
:1017800001900D928A95E1F782E591E0E6D840DE7E
:10179000C7CF81E08E25EBCEACE0B0E0E2EDFBE020
:1017A0000C94631E4F83588769877A878B879C8741
:1017B000CE01079680DE882369F08A859B85892B78
:1017C00039F04F815885842F85238F3F09F067C0FA
:1017D00016E05BC086E0FE013796DE0111960190AF
:1017E0000D928A95E1F78A859B85892B89F38F81F4
:1017F000988589238F3F61F32091210130E0C90151
:10180000019687709927409120014817190669F4BD
:10181000B6DB109221011092200186E0E2E5F1E0B2
:10182000DF011D928A95E9F7D3CF96E0929FD00110
:10183000939FB00D1124AE5DBE4FFE013196019015
:101840000D929A95E1F780932101B4DDC1CF819F7C
:10185000C00111248E5D9E4F2EDE8823E1F0E091C1
:1018600020011E9FF0011124EE5DFE4F4081518149
:101870006281738184819581B0DB8091200190E049
:101880000196877099278093200180912001909183
:1018900021018913DCCF2C96E3E00C947F1E69852F
:1018A0007A858B859C8599DB93CF682F8091640026
:1018B000909165000C94721A0895682F80916400CD
:1018C000909165000C94741A089580916400909131
:1018D00065000C94761A0895809158018595859538
:1018E00085950895809158018770089590915801C9
:1018F000977081E009F480E0089580916301089574
:1019000090916301892B8093630108958095909154
:1019100063019823909363010895109263010895E1
:1019200090916201892B8093620108958095909136
:1019300062019823909362010895109262010895C4
:101940008091590108950895FECF089590918302E2
:1019500092FF07C090915901981719F0809359018F
:10196000F3CF089580915901882321F010925901F5
:1019700080E0EACF0895E0916400F09165008091E5
:1019800063018083E0916400F09165008081909113
:101990006201892B808390915901992379F0E0911C
:1019A0006400F09165008081892B808380916400C0
:1019B000909165000E942A1A8111D4DF8091640001
:1019C000909165000C94F31908950895FECF089541
:1019D0009091830292FF0FC098E0899F900111249B
:1019E000622B6093580173DB809158018595859532
:1019F0008595ECCF08956BCB08951092580180E047
:101A0000E5CF0895909158018095892380935801DE
:101A1000282F277081F4282F082E000C330B9217E3
:101A2000130649F09091830292FF05C08595859534
:101A300085956EDBE2CF08959091830292FB222779
:101A400020F9281759F080FB92F990938302809136
:101A50008202909183023CD082E0D4CF089580919D
:101A6000830282FB882780F991E08927E5CF0895DA
:101A700081E0E2CF089580E0DFCF08956FEF7FEF40
:101A800090E080E00C94251F089590E080E00E9493
:101A9000071F21E0883E9E4F09F020E0822F089525
:101AA00082E090E00C94FA1E089583E090E00C949C
:101AB000FA1E0895CF9384E090E00E94FA1EC82F8A
:101AC00082E290E00E94FA1E982F8C2FCF91089509
:101AD000CF93C92F682F84E090E00E940C1F6C2FD9
:101AE00082E290E00E940C1FCF910895AB01BC01EF
:101AF0008FE090E00C941D1F0895AB01BC0183E1C1
:101B000090E00C941D1F089560E070E0CB01F5CFCC
:101B1000089560E070E0CB01E9DFF6CF089568EE4C
:101B20007EEF90E080E00E94251F60E082E090E080
:101B30000E940C1F60E083E090E00E940C1F109256
:101B40001C0110921D0110921E0110921F0160E0F5
:101B500084E090E00E940C1F64E082E290E00E942A
:101B60000C1F60E085E090E00E940C1F60E086E0C2
:101B700090E00E940C1F6FEF87E090E00E940C1F26
:101B800040E050E0BA0188E090E00E941D1F60E054
:101B90008DE090E00E940C1F40E050E0BA0188E127
:101BA00090E00E941D1F60E087E190E00E940C1F02
:101BB00040E050E0BA018CE190E00E941D1F70E00F
:101BC00060E080E290E00E94251F40E050E0BA0112
:101BD00088E190E00E941D1F9CCF0895A0CF08953A
:101BE000682F8EE090E00C940C1F08950E94BC1AA0
:101BF00060937101709372018093730190937401EB
:101C000060936D0170936E0180936F0190937001EA
:101C100008950E94BC1A60937101709372018093C1
:101C20007301909374016093690170936A018093CA
:101C30006B0190936C01089508950895FECF089567
:101C40000895FECF08958CE890E10E94DC19F4DF3E
:101C5000F5CF089581E00895FDCF08950895089582
:101C6000FDDFFDCF08956ED20C94610408950E94AB
:101C7000A91A26D3F8DF59D70E941618E2CF089583
:101C8000AAE0B0E0E6E4FEE00C945B1E2DD3C82E83
:101C90008111ACDF84E6A82E81E0B82E10E000E0D0
:101CA000902E802F74D2E82EF501F1905F01F81686
:101CB000A9F18091750181FD70D28F2D8E25D12CD7
:101CC000FF24F394982F9F2121F1C6DF882399F0F8
:101CD000DE829F82EF2081E009F480E088870E9405
:101CE000B01A8160782F9A8789874E815F816885D5
:101CF0008A850E947A04F801EC59FE4F8081F8260B
:101D0000F08281E0C11001C080E02A96EBE00C94E3
:101D1000771ED394FF0CF4E0DF12D4CF0F5F1F4F78
:101D20000530110509F0BCCF8FEF89838A831B82B0
:101D30000E94B01A8160782F9D838C8349815A81DB
:101D40006B818D810E947A04DCCF9ADF2AD70E94B2
:101D5000851881115EDF0C9470040895CF93DF9392
:101D600001D1EC01811522E59207E8F5811531E5F5
:101D7000930708F0ABC0883E910510F5803E9105B1
:101D800070F5883A910570F4853A910508F077C0AE
:101D90008130910521F1009711F1049700F5D0E011
:101DA000C0E01DC08F3B9105D0F7C85AD0E0CC0FE2
:101DB000DD1FC555DF4F0990D881C02DD4640FC0F9
:101DC000811540E5940708F065C0C11580E4D80787
:101DD00008F05DC0CE019A9581159F4100F7CE01B4
:101DE000DF91CF910895811536E5930718F5811598
:101DF00045E5940708F082C0C11584E5D80708F0CE
:101E000078C09C2F969596959E0123703327C11517
:101E1000D34508F460C0C1E0D0E002C0CC0FDD1FA4
:101E20002A95E2F730E2939FC0011124C82BD92BE9
:101E3000DA68D5CFC1158AE5D80778F4C11599E5D8
:101E4000D90708F064C0C11528E5D20708F4A7CF68
:101E5000DC2FCC27C06FD06AC2CFCE01905681153F
:101E6000904208F09CCF8D2F8F7113D190E0982F66
:101E7000882788279F719C012C2BE90146C0C55AF1
:101E8000D0E0C752DF4FC881D0E0D064A8CFDF7068
:101E9000D06AA5CFE4E096958795EA95E1F783703F
:101EA0002C2F26952695237040E2249F9001112423
:101EB000382B8C2F8370C1E0D0E002C0CC0FDD1F27
:101EC0008A95E2F7C22BD32BDC6889CFD82FCC2799
:101ED000C16FD06A84CFC1E0D0E002C0CC0FDD1F5B
:101EE0002A95E2F720E2929FC0011124C82BD92B3A
:101EF000EBCFDC2FCC27C46FD06A71CFCAD0C82FEC
:101F0000D0E0DC2FCC27CC27DF71D06268CF8C2FBC
:101F10008F70BFD034E0D695C7953A95E1F7CF7072
:101F20009C2FEC01D0695BCF7530B0F46430A0F425
:101F3000E72FF0E095E0899FE00DF11D1124EE0FF1
:101F4000FF1FEE0FFF1FE60FF11DEE0FFF1FEC5AF4
:101F5000FF4F85919491089580E090E00895E4DF2B
:101F6000FDCE089582389105B1F1B0F48133910529
:101F700009F475C048F48932910509F469C08A32C0
:101F8000910509F473C008958533910509F459C08A
:101F90008933910501F10895833E9105A9F138F443
:101FA000803E9105F9F0823E910549F10895863E03
:101FB0009105A9F1873E9105C9F1843E910519F576
:101FC0002091830221FF1FC08091820284FD14C0F2
:101FD00087EE90E00895209182022370A1F080EEB8
:101FE00090E008952091820220FD47C03091830245
:101FF00030FF09C024FF44C090E080E004C020917D
:10200000820222FDF7CF08952091820222FD3BC07B
:102010003091830230FDE3CF24FFF5CFEDCF209147
:10202000820223FFF0CF24FDE7CFD2CF209182029E
:1020300023FD2CC03091830231FFEECF84EE90E07F
:1020400008952091820225FFDECF89E290E0089575
:102050002091820225FFD7CF85E390E0089520915B
:10206000820226FFD0CF8AE290E00895209182027A
:1020700026FFC9CF81E390E0089589E390E00895B9
:1020800083EE90E0089582EE90E0089586EE90E071
:1020900008959091820292FF06C0282F287128305F
:1020A000F9F4877F846093FF06C0282F28712831B8
:1020B000F1F4877E84612091830220FF06C0382FCF
:1020C00038713830D9F4877F816021FF06C0282F0E
:1020D00028712831D1F4877E816194FD877E08952F
:1020E000282F24712430F9F68B7F8860DCCF282FCD
:1020F0002471243101F78B7E8861DDCF382F317157
:10210000313019F78E7F8860E0CF282F217121317F
:1021100021F78E7E8861E1CF80E00895AFCC0895ED
:10212000E3D08FE39CE90197F1F700C00000DCD019
:1021300080E02DD080FF03C0F1DF0C94FB1A0895DE
:10214000EFCF0895A2DC811101C048DDA9DC8093A6
:102150007501B0DC9093830280938202F1DFA5DCED
:10216000682F70E090E080E00E94060860911801FE
:102170007091190180911A0190911B010C944008F3
:1021800008950895FECF08950C9446030895E82F0E
:10219000F0E0E757FD4F80810895089580EA8A9521
:1021A000F1F7089500C00895F9CF0895F894E82F45
:1021B000E295EF70F0E031A9282F2F7081E090E0D8
:1021C00001C0880F2A95EAF7982F9095932391AB39
:1021D00092A9892B82AB78940895CF93DF93C0EEB8
:1021E000D0E089918F3F09F0E1DF80E0C53ED8075C
:1021F000C1F787E0DBDF82E3D9DF83E3D7DF84E366
:10220000D5DFDF91CF910895B0E0A0E0EAE0F1E101
:102210000C945E1EEC01D62E062F10E0C8018052F1
:102220009F4F7C01FC0180818F3F09F442C0F894EC
:10223000E82FE295EF70F0E091A98F7021E030E097
:1022400001C0220F8A95EAF7892F822B81AB82A9E0
:102250002095282322AB7894A5DFECEDF0E040EE4A
:1022600050E031E0C12C21912F3F41F1A22FA295E6
:10227000AF70B0E0D0968C9190E02F7002C0959531
:1022800087952A95E2F780FD19C0832FC82A330F5E
:102290004E175F0741F7F70180818F3F09F086DF16
:1022A00061E0C11001C060E08D2D7EDFC00FD11F45
:1022B000C882CDB7DEB7E8E00C947A1E80E0E6CFA6
:1022C0008CDF85E0E9E8F2E0DF01982F1D929A9516
:1022D000E9F7E4E8F2E0DF011D928A95E9F785E08D
:1022E0003DD00C94DE030895A5E0B0E0EAE7F1E10B
:1022F0000C94611E8E010F5F1F4F85E0F801119253
:102300008A95E9F7F12C6F2DC8017EDFF394F5E093
:10231000FF12F9CF45E050E0B80184E892E00E9456
:10232000ED1EFF24F394009709F4F12C892B41F062
:1023300085E0F801A4E8B2E001900D928A95E1F7FA
:102340002F2D45E069E872E084E892E008D00E9411
:10235000E1038F2D2596E5E00C947D1E0895FF92F4
:102360000F931F93CF93DF93F82E092F162FD72F9C
:10237000C42F222349F081E0809378010E94B01A93
:102380009093770180937601809178018823A1F062
:1023900080917601909177010E94C81A059760F0AC
:1023A000EF2DF02FA12FBD2FCE0FDF2FD11DEC175A
:1023B000FD0739F410927801CDB7DEB7E5E00C9453
:1023C0007D1E81918D93F3CF0E941D1B50DC0C94D8
:1023D0002D1B08950E94971A0E94171B34DCF4DF0E
:1023E0000E94391B3DDCFCCFEF92FF920F931F93AD
:1023F000CF93DF93EB01E82FD1110EC0442321F0DE
:10240000F0E0E854FE4FE4916E2F7E2F8E2FCDB773
:10241000DEB7E6E00C947C1E0D2F10E0282F30E094
:10242000442329F028543E4FF901249130E0F6E08E
:10243000CF9FC0011124EFEFF0E0BF010E94051E05
:10244000AB018C2F90E0880F991FA5E5A49FB001E8
:10245000A59F700D1124861B970B982F990F980F2D
:10246000BF01601B710B629FD001639FB00D729F13
:10247000B00D11248B2F9D9FB0011124672F77275A
:10248000EF01C61BD70BBE01629FE001639FD00D19
:10249000729FD00D11247F01E91AF108E09EB0016E
:1024A000E19E700DF09E700D1124672F7727E61BBB
:1024B000F70BE29F8001E39F100DF29F100D112496
:1024C000E12F722F4230510599F048F44115510522
:1024D00069F04130510581F0EB2F8D2F07C044305A
:1024E000510569F080F046305105B1F76E2F8FCF5E
:1024F000E22F7B2F812FFACFE22F7D2FF7CFEB2F0B
:10250000822F712FF3CF7B2F822FED2FEFCF41E062
:102510006BCF08950895FBCF0895CF93DF93762F67
:10252000E901682F842FF7DF798368838A83DF913D
:10253000CF9108954D3808F04CE8EFCF0895809181
:102540008E02982F9E7F61F48170826080938E024C
:10255000809191028D3818F08CE880939102089553
:102560008031B0F381708E60F1CF88E090E00C9400
:10257000021F0895CF92DF92EF92FF926B017C01D0
:10258000DEDFB701A60188E090E00E941D1FFF90EA
:10259000EF90DF90CF900895EEE8F2E083E0808343
:1025A00011828FEF82838CE8838314826081718132
:1025B00082819381DFCF089580918E0280FF02C0D7
:1025C0008695089580E0089590919202933018F4D2
:1025D0009F5F90939202882349F060918E027091E0
:1025E0008F028091900290919102C4CF089581E072
:1025F000EBCF089590919202992319F09150909306
:102600009202882349F060918E0270918F0280912E
:10261000900290919102AECF089581E0EBCF0895A2
:1026200070E092C30895CF92DF92EF920F931F93C1
:10263000CF93DF93CDB7DEB7E3970FB6F894DEBF45
:102640000FBECDBF6091670080918E0280FF35C0C4
:10265000E7EAF1E09E012F5F3F4F8E010C5C1F4FB8
:10266000C901A4914A2F50E0DA01AA0FBB1FA40FA1
:10267000B51FAD56BD4FCD90DD90EC90D901CD92F8
:10268000DD92ED929D013196A017B10751F720918F
:102690006600B3E02B9F800D911D1124C1DFE396EE
:1026A0000FB6F894DEBF0FBECDBFDF91CF911F9163
:1026B0000F91EF90DF90CF900895809168009091F6
:1026C000690023E0829FF0011124ED56FD4F891728
:1026D00008F0BECF1182108212828F5F3396F7CF3F
:1026E00090918E0290FF0DC090916800209169003A
:1026F00033E0939FF0011124ED56FD4F921710F037
:1027000092CF08958183608342839F5F3396F6CF93
:10271000A3E0B0E0EEE8F3E10C94601EF82E062F83
:10272000142FE22E80918E0280FF25C0E82FE695BF
:10273000F0E0EB51FF4F90819093D7018E7F823074
:1027400049F49E012F5F3F4F8F2DF4DE4B8169814D
:102750008A81C6DFF0928F0200939002109391025B
:10276000EE2049F060918E0270918F02809190026C
:1027700090919102FFDE2396E6E00C947C1EEEE839
:10278000F2E09181282F4381628188E0890FC0CFD8
:10279000089581E0F4CF0895EEE8F2E09181282FCA
:1027A0004381628188EF890FB3CF089581E0F4CF30
:1027B0000895EEE8F2E0628128E0620F08F46FEF1E
:1027C000282F43818181A4CF089581E0F2CF08951D
:1027D000EEE8F2E0628128E0621B08F460E0282F56
:1027E0004381818195CF089581E0F2CF0895EEE88D
:1027F000F2E0438128E0420F08F44FEF282F628176
:10280000818186CF089581E0F2CF0895EEE8F2E06D
:10281000438128E0421B08F440E0282F6281818137
:1028200077CF089581E0F2CF089520E071CF089529
:10283000B0E0A0E0EEE1F4E10C94561EFC016280F1
:10284000448081E08483E7EAF0E07490E6E2F1E01E
:10285000E491812C75E0972EF2E0CF2EDD24D39405
:10286000AA24AA94B12C55245A94E7190E2F10E0EB
:1028700080916A00881630F0D6DECDB7DEB7E0E191
:102880000C94721EE82CF12C82E0861568F09E9C58
:10289000F0019F9CF00D1124E758FE4F80918F02AC
:1028A0008083809190028183411022C09E9CF00120
:1028B0009F9CF00D1124E758FE4F13821282209145
:1028C0006800C701820F911D9C01220F331F280F42
:1028D000391F2D563D4F9E9CF0019F9CF00D1124F9
:1028E000E758FE4F42816181808124DE8394C0CF0E
:1028F0009E9CE0019F9CD00D1124C758DE4F8B8118
:102900008823E9F081508B83859DC00111246C815F
:1029100070E00E94051EFB01FF27E955FF4F8491DF
:10292000E82FE719E59DC0011124B8010E94051E9A
:1029300080919102689FB00111247A83C0CF0E94D8
:10294000D21E20919102269521582C9DA0012D9DEB
:10295000500D1124452F5527841795070CF0AFCF44
:1029600082E0861588F40E94D21EB5010E94191ECD
:1029700088830E94D21E209190022695622F70E0DB
:102980000E94191E280F29839E9CF0019F9CF00D28
:102990001124E758FE4F128280919102893C58F031
:1029A00088EC9E9CF0019F9CF00D1124E758FE4F8F
:1029B0008483838384CF8431A0F784E1F2CFEEE86F
:1029C000F2E080818E7F808360817181828193813A
:1029D000D1DD1092D8012FEF80E792E021508040A6
:1029E0009040E1F700C000001ECE0895EEE8F2E04E
:1029F00080818E7F80831092D8012FEF80E792E054
:102A0000215080409040E1F700C000000CCE0895B6
:102A10001092D8018091D501811109C081E0809385
:102A2000D50180918E0281708093D401DFCF08950B
:102A300060918E02669570E041E050E08BE690E098
:102A40000E94E01E892B19F481E08093D80188D57B
:102A50009093CF018093CE01089590918E0290FFC4
:102A600029C09170811127C0926090938E026623D5
:102A700049F060918E0270918F0280919002909146
:102A8000910278DD60918E02669570E041E050E041
:102A90008BE690E00E94E01E892BA1F01092D801F5
:102AA00081E08093D10140919102609190028091E8
:102AB0008F02BBCE0895883010F09E60D6CF880F6D
:102AC000982BD3CFB5DFECCF682F90918E029695DF
:102AD00081E0890F883008F081E0BFCF089581E060
:102AE000F3CF0895682F90918E0296958FEF890FFE
:102AF00009F487E0B2CF089581E0F4CF089561E052
:102B0000ACCF0895EEE8F2E0808181608083869505
:102B1000F6CF089580918E0280FF02C050CF0895B5
:102B2000F1CF089560E099CF08958091D601811189
:102B300027C00E94450D811102C050D82DDD15DD42
:102B400060938E0270938F02809390029093910213
:102B50006E7F51F421DD09DD60938E0270938F0248
:102B60008093900290939102EADC1092D8018091B8
:102B70008E0280FF02C08695D5DF81E08093D6016A
:102B80000895EEE8F2E08081816080838695CACF67
:102B900008951092D5018091D4018111F2DF48CFC0
:102BA00008950F931F93CF93DF938091D8018823CB
:102BB00009F43DC09091D70180918E028695891BC2
:102BC0008093D001C0EDD7E00AE812E1923061F4C1
:102BD00063E00E94F91DE92FF0E0EC55FF4FE4910E
:102BE000CE2FD0E008E114E18091D101882359F083
:102BF0001092D101B5D49093CF018093CE01109261
:102C0000D3011092D201ACD4E091CE01F091CF016A
:102C10008E1B9F0B8F3F9F4750F4CE0FDF1FD0932B
:102C2000CF01C093CE018EEC91E0F8010995DF91C0
:102C3000CF911F910F910895FA01811101C0FB01FD
:102C400009950895B9DC823028F0B6DC873010F49D
:102C500046CF089582E053CF08951F93CF93DF931B
:102C6000EC01FB01128111111AC00E947D0C8272CD
:102C7000CA3CFCE5DF0709F45FC050F5C63CECE553
:102C8000DE0709F454C080F4C43C9CE5D90709F47C
:102C900043C008F047C0C33CDC45E1F111E0812F9F
:102CA000DF91CF911F91089544EF53E165EE73E1F9
:102CB000C83C9CE5D907A1F149EC53E166ED73E10D
:102CC000C93CDC4568F145EE53E164EF73E128C08F
:102CD000CE3CFCE5DF07A9F1A0F44DE053E167EF3E
:102CE00072E1CC3CECE5DE07D9F043E054E162E16F
:102CF00074E1CD3CDC45A0F047EF52E16DE073E1BB
:102D00000FC0C73D8CE5D80750F2CE35DD4531F612
:102D100099DFC5CFFFDEC3CF4CE755E16FE675E124
:102D20008BDFBDCF4FE655E16CE775E1F9CF46ED9E
:102D300053E169EC73E1F4CF42E154E163E074E103
:102D4000EFCF81E0DCDEABCFA79A45B34F7755B329
:102D50005068EFB7F8949B01220F331F260F371FDF
:102D6000280F391F2817390741F4EFBF8FE594E08A
:102D70000197F1F700C000000895DC016D91CD01CD
:102D800078E055BB000000C067FF45BB660F000040
:102D900000C000C000C045BB00C07A9591F7E2CFEB
:102DA000CF93DF93EC01FB018281882309F433C1C7
:102DB000C430FDE5DF07C0F5CB3F9CE5D90730F413
:102DC0009E0122503C4524313105B0F50E945A0D38
:102DD0009093830280938202C1318CE5D80709F475
:102DE000EEC008F069C0C930ECE5DE0709F4D5C0D3
:102DF000C8F5C5308CE5D80709F4C7C000F5C33065
:102E0000ECE5DE0709F4B9C008F0BBC0C230DC4510
:102E100009F4ADC080918202909183020E94680DF6
:102E20000E94BF0780E008C0C236EDE5DE0771F200
:102E3000C63AFDE5DF0751F2DF91CF910895809109
:102E400082028062C7309CE5D90709F493C0809163
:102E500082028061C830DC4508F48CC08091820217
:102E6000806488C0809182028B7FCD30FCE5DF07D3
:102E700009F480C098F4809182028E7FCB309CE56B
:102E8000D90709F477C0809182028C60CC30DC4590
:102E900008F470C0809182028D7F6CC080918202A4
:102EA0008F7ECF30FCE5DF0709F464C008F47BC0F7
:102EB000809182028F7D5EC0CE3F9CE5D90709F4E8
:102EC0007AC050F5C531FCE5DF0709F486C098F4F7
:102ED00080918202837FC3319CE5D90709F44AC0FF
:102EE00008F471C00E94BF0790918202892F97FB5E
:102EF00087F980583FC0CC3FFCE5DF0709F449C0A3
:102F000008F055C0809183028160CB3FDC4509F019
:102F100081CF809383027ECFC230EDE5DE0709F4D6
:102F200068C0A8F4C1158DE5D80709F452C0809196
:102F300083028360C130DD4560F380918302982F66
:102F4000909591708E7F892B90FB81F9E2CFC236EC
:102F5000EDE5DE0709F451C0C63AFDE5DF0709F4E7
:102F600053C0C330DD4509F055CF80E043C08091A8
:102F700082028160809382024DCF809182028260C2
:102F8000F9CF809182028460F5CF809182028860BF
:102F9000F1CF809183028260BCCF0E94BF078091F5
:102FA00082028068E7CF80918202877FE3CF8091A1
:102FB00083028E7FAECF809183028D7FAACF8091D6
:102FC00082028F7BD7CF0E94BF07809182028F77CA
:102FD000D1CF809183028C7F9CCF8091820282FB33
:102FE000992790F921E0922790FB82F990FB83F9D1
:102FF000C1CF81E00E94F00D0DCF90918202892F08
:103000008F7E94FF8061B6CF90918202892F8E7F50
:1030100090FF8160AFCF81E00FCF8FE891E0019703
:10302000F1F700C00000089581E00895FF920F932A
:103030001F93CF93DF9382E08093DB010FEF10E0CB
:10304000CDEFD0E0AE01D80121E030E08D91E82F46
:10305000E295EF70F0E0F1A88F70B90101C0660F42
:103060008A95EAF7962F90959F2191AB82A9862B9E
:1030700082ABFA018191AF01E82FE295EF70F0E0A9
:10308000F1A88F70B90101C0660F8A95EAF7962FF3
:1030900090959F2191AB82A9862B82ABF1E0A13064
:1030A000BF07A1F6BADF6091DB014EED51E0FA01F6
:1030B0008E2F841B861720F0CDB7DEB7E5E01DC646
:1030C000D8012D918D01A22FA295AF70B0E0D096BE
:1030D0008C9190E02F7002C0959587952A95E2F724
:1030E00081709991A92FA295AF70B0E0D0962C91E4
:1030F00030E09F7002C0359527959A95E2F790E0F1
:1031000020FD92E0892B8193D3CFB0E0A0E0EAE8E4
:10311000F8E1D4C5F12CE12C82E0C82ED12C8091AD
:10312000DB01F81628F08E2DCDB7DEB7E8E0E2C55A
:103130000F2D10E0F801E150FF4F8081E82FE2955C
:10314000EF70F0E0E0A9F0E08F7002C0F595E79530
:103150008A95E2F7E170D801A350BF4F2C91A22FBE
:10316000A295AF70B0E0D0968C9190E02F7002C025
:10317000959587952A95E2F780FD3FC080E08E2BDC
:10318000D801A252BE4FEC919E2F9370981799F1DF
:10319000EE0FEE0FE82BEC93EF70F0E0E351FF4FF2
:1031A000E801C452DE4F80819881890F888320E036
:1031B00082305CF0F801E752FE4F80818F5F8083A0
:1031C00060E08F2D0E94580321E088818F3F5CF4DE
:1031D000F801E752FE4F80818150808361E08F2D9E
:1031E0000E94580321E08881082E000C990BB6013B
:1031F00020D58883E22AF39492CF82E0C0CFCF9388
:10320000DF93EB0186319C4511F50E947D0C9A817C
:10321000992399F08A7A91E009F490E09093E00183
:10322000811109C089E20E94550C0E94BB0C80E00C
:10323000DF91CF91089585E3F6CF8091E001811170
:1032400004C089E20E945D0CF0CF85E3FBCF81E0F2
:10325000EFCF0F931F93CF93DF93C42FD22FFC0197
:1032600082818823C1F04093E3017AD19093E201F7
:103270008093E10180E28C0F883040F4C77081E0D8
:1032800001C0880FCA95EAF70E949505DF91CF919A
:103290001F910F9108951091E301141331C0809193
:1032A000E1019091E20174D1883C910548F5C0E2BA
:1032B000CD0F1D17B9F080E2810F883040F41770F0
:1032C00081E001C0880F1A95EAF70E949A05C8307C
:1032D00048F481E09D2F977001C0880F9A95EAF716
:1032E0000E949505802F0E948D05C83078F6D77012
:1032F00081E001C0880FDA95EAF70E949A05C6CFEF
:1033000080E28C0F883010F6C77081E001C0880F12
:10331000CA95EAF7F2CF0F939C01CB01243F4CE50D
:10332000340751F1A0F4293DFCE53F07F9F02A3DAF
:103330004CE53407C9F1283D3C4589F406E221EE0D
:1033400041EE68ED7CE585DF80E00F910895263F32
:10335000FCE53F07E9F0B0F0273F3C45F9F0FC0100
:103360008281882339F11092E301EFCF07E225EE45
:1033700045EE69ED7CE5E7CF06E221EE40EE64EF35
:103380007CE5E1CF07E225EE44EE65EF7CE5DBCF9F
:1033900006E221EE42EE66EF7CE5D5CF07E225EEB0
:1033A00046EE67EF7CE5CFCF08E221E045EE6AED1F
:1033B0007CE5C9CF81E0C9CF9093030180930201DE
:1033C00008959093E9018093E8010895E091E80160
:1033D000F091E901309729F00190F081E02D0995F5
:1033E000089580E00895E091E801F091E9013097B7
:1033F00021F00280F381E02D099508952091E601E6
:103400003091E7012817390771F09093E701809315
:10341000E601E091E801F091E901309721F00680A2
:10342000F781E02D099508952091E4013091E5019F
:103430002817390771F09093E5018093E401E0913A
:10344000E801F091E901309721F00084F185E02D49
:10345000099508959C012E5F3F4FAC01485F5F4F77
:1034600080E02417350709F40895F90191919F012F
:103470009923B9F38F5FF5CF662349F0FC013296AB
:1034800008962191261729F0E817F907D1F780E06F
:10349000089581E008959C01FC0132969FEF80E041
:1034A0004191461751F09F3F19F4411101C0982FE7
:1034B0008F5F8630A9F79F3F09F40895290F311DCA
:1034C00097FD3A95F90162830895FC0132960896BA
:1034D0002191261303C0DF0111971C92E817F90709
:1034E000B9F70895D8CF0895F0CF0895029626E051
:1034F000FC0111922A95E9F7089508950895FECFE9
:10350000089508950895F9CF0895CF93FADF0E94A2
:103510007411F8DFC0E08C2F0E94C710811105C024
:10352000CF5FC530C1F7CF91089581E0FCCF84B75C
:10353000806884BF84B7806884BF08958091EC015F
:1035400081110C944E0408950E94BF070C945404FA
:1035500008958BE083BF8AEF8CBF82E089BF089516
:103560002FB7F8948091C6029091C702A091C8022B
:10357000B091C9022FBF08952FB7F8946091C60289
:103580007091C7028091C8029091C9022FBF08951F
:103590009C014FB7F8948091C6029091C702A09108
:1035A000C802B091C9024FBF821B930B0895789453
:1035B0001F921FB61F9211248F939F93AF93BF93B7
:1035C0008091C6029091C702A091C802B091C90231
:1035D0000196A11DB11D8093C6029093C702A093CE
:1035E000C802B093C902BF91AF919F918F911F9074
:1035F0001FBE1F90189588E198E00FB6F894A89523
:1036000081BD0FBE91BDA895F894D8E0CEE528E322
:10361000299320E0299314BEFFCF089588E198E014
:103620000FB6F894A89581BD0FBE91BDFFCF98DF6E
:103630009093EB018093EA010895C0D28B9A80E0C9
:10364000815019F48B9878940895A895EFE9FFE0DC
:103650003197F1F700C00000F3CFDED0B2DE2FEFDC
:1036600080E792E0215080409040E1F700C00000E8
:1036700008958091F1028823F1F01092F10270DF39
:103680009093EB018093EA018091EC01882339F05B
:103690001092EC0159DF8091EC01811110C0A2D190
:1036A0008091F702882329F08091D50284FD0E9441
:1036B000A50E5DC008958091EC018823F1F03EDFF6
:1036C00024DF8823B9F3F89421B3939A822F8C6076
:1036D00081BB92B33CE0932792BB4FE788E391E034
:1036E000415080409040E1F700C0000082B3832742
:1036F00082BB21BB9398789408958091EA019091C0
:10370000EB0146DF069708F4C6CF81E08093EC0119
:1037100015DFC1CF80918102089508959091F20143
:10372000981307C02091F0013091F1012617370757
:10373000A1F08093F2017093F1016093F001809306
:10374000ED017093EF016093EE0180910E0384FF11
:1037500004C063E08DEE91E041C10895BC0184E0B6
:10376000DDCF0895BC0183E0D9CF08950895CF93AC
:10377000DF93CAE0D0E08091D50284FF19C0809128
:10378000FE019091FF01981781F028E0829FC0010F
:10379000112468E080509E4F1DD18091FE0190E081
:1037A00001968F7099278093FE01DF91CF91089544
:1037B00019D18FE99FE00197F1F700C00000219730
:1037C000D1F6F3CFCF93DF93EC01A091FF01B0E0EE
:1037D000CD0101968F7099272091FE01281779F06D
:1037E00093E0AA0FBB1F9A95E1F7A050BE4F98E057
:1037F000FE0101900D929A95E1F78093FF01F2D0BE
:10380000B6DF88E0FE01A6EFB1E001900D928A9547
:10381000E1F7DF91CF9108958CE690E00895FC01E7
:10382000808180768032F1F48181813061F48481FD
:103830009581892BB9F486EF91E09093F302809300
:10384000F20288E00895823041F480E892E090939B
:10385000F3028093F20281E008958A3029F4838193
:103860008093800280E008958930E1F7828193811E
:103870008115924069F484819581892B49F481E016
:103880008093F501868197819093F4018093F301F1
:103890008FEF0895FC018091F3019091F401892B41
:1038A00061F08091F501813041F490819093810223
:1038B0001092F4011092F30108958FEF0895089586
:1038C000FC019381933051F130F49130B9F0923092
:1038D000E9F080E008959132D9F19232D1F78481F4
:1038E0009581009709F445C0019799F789E293E023
:1038F0009093F3028093F20282E3089583EF92E0C3
:103900009093F3028093F20282E1089588EB92E0B3
:103910009093F3028093F2028BE3089582818130C9
:1039200079F0882329F08230A1F685E093E0E8CF92
:1039300085E293E09093F3028093F20284E008958D
:1039400089E193E09093F3028093F2028AE0089574
:103950008281882331F0813009F0BBCF83EE92E081
:1039600002C08AEC92E09093F3028093F20289E025
:1039700008958BE593E09093F3028093F20280E444
:1039800008951F93CF93DF93E82F792F162FEA0125
:10399000888184FF1CC0298188E828272983CE01DB
:1039A0000296DC012E2F372F512F5E0FF901219146
:1039B0002D939F01452F4E1B1416C4F3612F0E94B7
:1039C00001021C5F1883DF91CF911F9108958AE552
:1039D0008883E5CF45ED52E0D4CF08954EE053E023
:1039E000D0CF0895CF93DF936091F402635067FDC9
:1039F00011C08091F002CCE0D0E0C81BD109C850C2
:103A0000DD4F8091EF02803108F053C0CE0157DFC7
:103A10001092F4028091790084FF3EC0809178007A
:103A20008F3FD1F1C82F893008F0C8E0982F9C1B38
:103A3000909378009091CA0228E892279093CA0246
:103A40008823E9F08091F2029091F3022091EE0236
:103A500026FFABC0FC012C2FABECB2E034913D93C0
:103A600031962150D9F79C012F5F3F4F8FEF8C0F7C
:103A7000820F932F911D9093F3028093F2026C2F8B
:103A80008BEC92E00E940102CC5FCC3019F08FEFFA
:103A900080937800C093790084E190B39C7031F4F6
:103AA0008150D9F71092F5021092ED02DF91CF917B
:103AB00008958D3209F067C0683009F0A9CF83EC12
:103AC0008093CA028AE5809379001092EE02888181
:103AD000807669F0CE01A3DE8F3FC1F4988197FD17
:103AE0008E8190E89093EE028093780091CF2A81A6
:103AF0001092D3029981911111C01092D40223ED3A
:103B000032E082E03093F3022093F2029F81911120
:103B1000EBCF9E81981740F7892FE6CF953029F497
:103B20002093F50223ED32E0EDCF963091F49B81A6
:103B3000913019F4CE01C4DE08C09230D9F393302D
:103B4000C9F39132B9F39232A9F390E49093EE0263
:103B5000C3CF983089F0993019F42093F702E2CF5F
:103B60009A3071F09B30F1F69BE49093D6029093DB
:103B70000F039093E202D6CF27EF32E081E0C2CF6D
:103B800023ED32E0FBCF8091EE0287FF41CFCE01E3
:103B900081DE8F3F21F48EE18093790039CF882335
:103BA00009F436CF1092780033CFDC012C2FEBECE8
:103BB000F2E03D9131932150E1F755CFCF93DF9360
:103BC00085B7886085BF8BB780688BBFC5EDD2E0B5
:103BD0008BE48983AEE0B3E011968C931197E1EE0C
:103BE000F2E081838AE588838C938083DF91CF9193
:103BF0000895991B79E004C0991F961708F0961B49
:103C0000881F7A95C9F780950895AA1BBB1B51E1BF
:103C100007C0AA1FBB1FA617B70710F0A61BB70B3C
:103C2000881F991F5A95A9F780959095BC01CD01E1
:103C3000089597FB072E16F4009406D077FD08D060
:103C4000E4DF07FC05D03EF4909581959F4F0895E1
:103C5000709561957F4F0895A1E21A2EAA1BBB1B98
:103C6000FD010DC0AA1FBB1FEE1FFF1FA217B30748
:103C7000E407F50720F0A21BB30BE40BF50B661F5E
:103C8000771F881F991F1A9469F760957095809522
:103C900090959B01AC01BD01CF010895EE0FFF1F70
:103CA0000590F491E02D09942F923F924F925F92EC
:103CB0006F927F928F929F92AF92BF92CF92DF923C
:103CC000EF92FF920F931F93CF93DF93CDB7DEB7A1
:103CD000CA1BDB0B0FB6F894DEBF0FBECDBF099435
:103CE0002A88398848885F846E847D848C849B848C
:103CF000AA84B984C884DF80EE80FD800C811B819A
:103D0000AA81B981CE0FD11D0FB6F894DEBF0FBEC8
:103D1000CDBFED0108958F929F92AF92BF92CF9247
:103D2000DF92EF92FF92CF93DF93EC01688179816C
:103D30008A819B81611571058105910521F464E2F9
:103D400079ED8BE597E02DE133EF41E050E091D044
:103D500049015A019B01AC01A7EAB1E4A6D06B016D
:103D60007C01ACEEB4EFA5019401ABD0DC01CB013A
:103D70008C0D9D1DAE1DBF1DB7FF03C00197A1098E
:103D8000B04888839983AA83BB839F77DF91CF91C3
:103D9000FF90EF90DF90CF90BF90AF909F908F906B
:103DA0000895B9CF80E690E0B6CFB0E0A0E0809370
:103DB000600090936100A0936200B0936300089547
:103DC000FC014150504030F001900616D1F7319778
:103DD000CF010895882799270895FB01DC0104C0CD
:103DE0008D910190801921F441505040C8F7881BF3
:103DF000990B0895E199FECF9FBB8EBBE09A99275E
:103E00008DB30895A6E1B0E044E050E024C0A8E1FD
:103E1000B0E042E050E01FC0262FE199FECF9FBBEB
:103E20008EBBE09A01970DB2021631F02DBB0FB692
:103E3000F894E29AE19A0FBE08950396272FEDDFDA
:103E4000EBDF252FEADF242FE8CF0196272FE5DFD0
:103E5000E3CFDC01CB01FC01E199FECF06C0FFBB43
:103E6000EEBBE09A31960DB20D9241505040B8F73A
:103E70000895052E97FB16F400940FD057FD05D03A
:103E8000EBDE07FC02D046F408C050954095309513
:103E900021953F4F4F4F5F4F0895909580957095B6
:103EA00061957F4F8F4F9F4F08950FD0A59F900D25
:103EB000B49F900DA49F800D911D11240895B7FF0C
:103EC000F4CFF3DF821B930B0895A29FB001B39F41
:103ED000C001A39F700D811D1124911DB29F700D13
:103EE000811D1124911D0895F894FFCFD705D705A2
:103EF000010601067C062C062C062C0698061C07DB
:043F0000280728075F
:103F0400010000005A010011001111018A1BE21B7B
:103F1400B61BB21BAE1B8D1BFF5AE200E900EA0080
:103F2400B500B600B700CD008301CC008A01920130
:103F340094012102230224022502260227022A02D6
:103F4400B300B4006F007000818283E200E900EAEC
:103F540000B500B600B700CD008301CC008A019201
:103F64000194012102230224022502260227022AA7
:103F740002B300B4006F00700081828307323334CF
:103F84009796959493000102020202020200FF0137
:103F940000010000FFFF0000010001FF00616362F7
:023FA4006400B7
:00000001FF
