:1000000046C2000061C2000079C200005DC200006B
:100010005BC2000059C2000057C2000055C2000078
:1000200053C2000051C200000C94511E4DC200008A
:100030004BC2000049C2000047C2000045C2000098
:1000400043C2000041C200003FC200003DC20000A8
:100050003BC2000053005400550056005F00600092
:10006000610057005C005D005E00A80059005A0066
:100070005B005800000062006300115001000100A5
:100080000100005CC85CC75CC95CC25CC65CC55C46
:10009000CA5C0100C85CC75C0100C35C00000100D1
:1000A0000100105000000000000000002A2B280072
:1000B0000000000000000000000000000000002917
:1000C000000000002C1E3420212224342627252E57
:1000D000362D3738271E1F2021222324252633338F
:1000E000362E37381F0405060708090A0B0C0D0EBB
:1000F0000F101112131415161718191A1B1C1D2F87
:100100003130232D350405060708090A0B0C0D0EA6
:100110000F101112131415161718191A1B1C1D2F66
:100120003130354C000000000000000000000000ED
:1001300000000000000000000000000000000000BF
:1001400000000000000000007E0F00D4FFFFFFC78A
:10015000000000781E0F052223252628292A2C2D91
:100160002F3032333536383A3B3D3E4042434547E7
:10017000494A4C4E5051535557595A5C5E6062641F
:100180006668696B6D6F71737577797B7D7F81832D
:100190008587898A8C8E90929496989A9C9E9FA12E
:1001A000A3A5A7A8AAACAEAFB1B3B4B6B8B9BBBC4F
:1001B000BEBFC1C2C3C5C6C7C9CACBCCCDCED0D1C4
:1001C000D2D2D3D4D5D6D7D7D8D9D9DADADBDBDBBC
:1001D000DCDCDCDCDCDDDDDDDDDCDCDCDCDCDBDB5D
:1001E000DBDADAD9D9D8D7D7D6D5D4D3D2D2D1D0B1
:1001F000CECDCCCBCAC9C7C6C5C3C2C1BFBEBCBBAE
:10020000B9B8B6B4B3B1AFAEACAAA8A7A5A3A19F25
:100210009E9C9A98969492908E8C8A8987858381E9
:100220007F7D7B79777573716F6D6B6968666462CA
:10023000605E5C5A5957555351504E4C4A49474598
:100240004342403E3D3B3A3836353332302F2D2C39
:100250002A29282625232203020100040506070A6D
:1002600009080B0C0D0E100F000101010101010125
:10027000010102020202020202020203030303035B
:10028000030303040404040404040505050505062A
:1002900006060606070707070708080808090909E8
:1002A000090A0A0A0B0B0B0C0C0C0D0D0D0E0E0E91
:1002B0000F0F0F1010111111121213131414151522
:1002C00016161717181819191A1A1B1B1C1D1D1E94
:1002D0001E1F2020212222232424252626272829E8
:1002E000292A2B2C2D2D2E2F303132323334353616
:1002F0003738393A3B3C3D3E3F4041424344454616
:100300004748494A4C4D4E4F5051535455565859F1
:100310005A5B5D5E5F616264656668696B6C6D6F98
:100320007072737577787A7B7D7E8082838587880B
:100330008A8C8E8F91939596989A9C9EA0A2A3A545
:10034000A7A9ABADAFB1B3B5B7BABCBEC0C2C4C646
:10035000C9CBCDCFD1D4D6D8DBDDDFE2E4E7E9EB02
:10036000EEF0F3F5F8FAFDFF09025B00030100A0CF
:10037000FA09040000010301010009210101000143
:10038000224000070581030800010904010002035F
:100390000000000921010100012222000705840359
:1003A0000800010705040308000109040200010315
:1003B000000000092101010001223200070583032A
:1003C00008000112011001000000083FB3115B0298
:1003D0000001020001120353004B0059004C004978
:1003E0000047004800540000000A035A004F004331
:1003F0000049000000040309040660FF0961A1012F
:100400000962150026FF0095207508810209631511
:100410000026FF00952075089102C005010980A102
:1004200001850319012AB700150126B7009501754A
:10043000108100C0050C0901A101850419012AA041
:1004400002150126A002950175108100C005010961
:1004500006A101050719E029E71500250195087592
:100460000181029501750881030507190029FF150F
:100470000026FF0095067508810005081901290569
:10048000950575019102950175039103C000112432
:100490001FBECFE5D8E0DEBFCDBF11E0A0E6B0E0E3
:1004A000ECEFF6E402C005900D92A230B107D9F747
:1004B00023E0A2E0B1E001C01D92AF32B207E1F744
:1004C0000E9445120C945D239BCDA82FB92F80E08C
:1004D00090E041E050EA609530E009C02D9182271C
:1004E0009795879510F084279527305EC8F36F5F46
:1004F000A8F30895EADF8D939D930895CF93CFB726
:10050000CF93DF93C395839BE9F7839B10C0839BB5
:100510000EC0839B0CC0839B0AC0839B08C0839B37
:1005200006C0C0910603C395C09306038EC06F93A7
:10053000C0910503DD27C35FDC4F2F9365E5839BE7
:1005400003C02F916F91E1CF0F931F934F9320E042
:1005500040E15F9300B30C7003FB27F93F9350E039
:100560003BE039C01C7040642F77012F5F5F1EC0D5
:10057000406810B31C702F7752501FC0406400B306
:100580002F770C70D1F15F5F00C023C0406210B3C1
:100590002F771C7091F15F5F00C025C00C70102791
:1005A000515012F45D5F0000115027952C3F10B39D
:1005B000C8F61C700127015027952C3FC8F642272A
:1005C000499300B30C7010274F73115027952C3F9F
:1005D000A8F64695469510B31C7079F00127015096
:1005E00027952C3F98F66B5A60F3315000B3B0F664
:1005F00000C010E81ABF00271CC03B503195C31B38
:10060000D04010E81ABF0881033C21F10B3411F1EE
:10061000209102031981110F1213EDCF4A81441F5B
:10062000093679F10D3211F0013E29F74F7009F0CA
:10063000042F00930B033F915F914F911F910F91F6
:100640002F916F91CAB7C7FD5DCFDF91CF91CFBF1B
:10065000CF91189520910B03222369F31091090380
:10066000112309F049C034300AF448C0309309031B
:1006700020930403109105033BE0311B30930503E5
:100680003DC0009109030130BCF50AE54F7049F403
:100690003091790034FD33C000937900CFEDD2E082
:1006A00032C0433059F0443091F03091EA0234FDC9
:1006B00026C00093EA02CBEED2E025C0309123039E
:1006C00034FD1DC000932303C4E2D3E01CC030916D
:1006D000F60234FD14C00093F602C7EFD2E013C057
:1006E000052710E000C0000002BB1AC0052710E07B
:1006F000221F1DC010E021C04AE502C032ED432F89
:10070000C4E1D0E032E011B31C60939A02B311BB94
:100710005CE020E865E320FF052702BB27951795DD
:100720001C3FF0F66695B8F7B1F720FF052702BB2E
:10073000279517951C3FD0F62795179517FF052786
:1007400000001C3F02BBB0F629913A9519F7037FD0
:1007500010910A03110FC651D04002BB11F0109343
:10076000020310E81ABF086011B3137F402F437FC4
:1007700054E05A95F1F702BB11BB42BB5CCF8091AC
:100780000601882369F080910401909105010E947F
:10079000421E893E934020F082EEC0D210920601A4
:1007A00008951F93CF93DF93182FC62F0E948E1B9F
:1007B000D82F882321F0112339F0113071F08D2FBB
:1007C000DF91CF911F910895CC2321F089EA04D3C2
:1007D000DC2FF5CF8AEA00D3F2CF80910601811198
:1007E00004C082EE1ED210930601CC2359F08BE296
:1007F00018D20E942A1E90930501809304018BE277
:100800008DD2E6CF81EE0DD28BE20BD20E942A1E52
:10081000909305018093040181EE80D28BE27ED219
:10082000CECF81E0089581E00895FDCF0895089529
:10083000FECF0895A5E0B0E0E0E2F4E00C944C2295
:1008400049835A833091080189819A81311116C0F8
:10085000662389F0222379F0D9D5182F682F898152
:100860009A81B3D569817A81812F0E94DD1A2596FC
:10087000E3E00C946822B9D5182FF4CFC7D569816D
:100880007A81F3CFFC01262F4081518162817381EF
:100890008481D0CF089581E00895CF93DF93EC0158
:1008A00060E0F0DFBE01C4DFDF91CF910895E1E0A9
:1008B000F0E0DF0102C0AA0FBB1F6A95E2F7BD019D
:1008C000DF0102C0AA0FBB1F4A95E2F76A2B01C0E5
:1008D000EE0F2A95EAF7962F9823961302C08E2BD7
:1008E0000895E0958E230895242F462F682F809138
:1008F0001201DDDFD4C408950C941D1108950C94E9
:100900001F110895089575D4FDDF2FEF84E39CE057
:10091000215080409040E1F700C000000895F3DFCF
:100920000C94751E0895EFDF0C94881E08950F93A4
:100930001F93CF93DF938C0161E0A4DFEC01B8013A
:100940000E94AD17811106C080E0DF91CF911F9109
:100950000F910895B801CE0168DF8823A9F3B8018B
:10096000CE010E94051D882379F3B801CE010E94B3
:10097000D718882349F3B801CE010E94791C882337
:1009800019F3B801CE010E94B0168823E9F2F801EC
:100990008281882361F0CA35FDE5DF07E9F050F474
:1009A000C115ECE5DE0781F0CE3DDC4579F0C801EC
:1009B00038DFCBCFCC358DE5D80759F080F0C73A7A
:1009C000DD45A9F7B0DFC0CFAADFBECF0E946D0E14
:1009D000F9CF0E94AE0DEBCF0E94B70DE8CF0E9479
:1009E000BA0DE5CF0E94F91DD4D00C948A15089554
:1009F000D3D00E944C160C94FD1D0895B0E0A0E0E9
:100A0000E4E0F5E00C944822E82FF0E0EC55FF4FCD
:100A1000D490282F26952695269530E0F901EC5B99
:100A2000FE4F0491877010E0082E02C015950795BF
:100A30000A94E2F701701127F901EC5CFE4FE49093
:100A4000F12C082E02C0F594E7940A94E2F791E0A5
:100A5000E922FF24F901EC5DFE4FC491D0E002C011
:100A6000D595C7958A95E2F7C170DD270115110567
:100A700011F081EED6D0E114F10411F086EED1D060
:100A80008D2DAAD1E114F10411F086EE47D10115A4
:100A9000110511F081EE42D1CD2B11F08CE29CD1E9
:100AA000CDB7DEB7E7E00C946422EF92FF920F938C
:100AB0001F93CF93DF93EC01162F0AE088818823E0
:100AC00009F450C0813009F04BC08981813091F424
:100AD0007E0122E0E20EF11C8A817ED1E70121969F
:100AE000812F815058F3EFE9FFE03197F1F700C013
:100AF0000000F7CF823039F47E0182E0E80EF11C6D
:100B00008A818FD0EBCF833039F47E01E2E0EE0EA4
:100B1000F11C8A8103D1E2CF843011F02196DFCF1E
:100B20002A81229690E080E0AE014F5F5F4F205314
:100B3000330B2A30310548F0019788F2EFE9FFE0E6
:100B40003197F1F700C00000F7CF089FB001099F6F
:100B5000700D1124C901860F971F2981EA01E4CF86
:100B60004DDFBDCFCDB7DEB7E6E00C94652260E087
:100B70009CCF08950895FECF089581E00895FDCF9C
:100B800008950895CF93C82FF6DF8C2FF8DFCF910B
:100B9000089580E0F7CF08950E94601DF3CF089577
:100BA0000E94601D90910701981719F0809307012A
:100BB000E9CF0895ABE0B0E0E0EEF5E00C944D2213
:100BC0004F83588769877A878B87611135D71E8253
:100BD0001D8285E0FE013796DE01119601900D928F
:100BE0008A95E1F78C819D81892B59F449815A813D
:100BF0006B817C818D819E814ED62B96E2E00C9498
:100C0000692289819A8189238F3F81F3CE010196E0
:100C100042DE8111EBCFF1CFFC018081918122C4B2
:100C20000895CF93C82F8823A9F08238A9F40E9491
:100C3000601D81FD0FC089E3B7D61CD72FEF81EE71
:100C400094E0215080409040E1F700C0000089E32B
:100C5000B3D610D7CF910895833891F40E94601DC8
:100C600080FDF8CF83E5A0D605D72FEF81EE94E085
:100C7000215080409040E1F700C0000083E5E8CFBC
:100C8000843891F40E94601D82FDE4CF87E48CD605
:100C9000F1D62FEF81EE94E0215080409040E1F7B3
:100CA00000C0000087E4D4CF8CEF8C0F813A78F439
:100CB0006C2F80916400909165000E94B61D88237E
:100CC00019F08C2F79D6D6D68C2F6ED6C2CF80E273
:100CD0008C0F883040F4C77081E001C0880FCA953E
:100CE000EAF78DD6B6CFEBE5EC0FE33040F4F0E059
:100CF000E855FF4F808190E00E94781DABCFC85A25
:100D0000C73108F0A7CFEC2FF0E0EE0FFF1FE65839
:100D1000FF4F808191810E948E1D9CCF882309F412
:100D200044C0823859F40E94601D81FF3EC089E3AF
:100D30003BD6A0D689E340D69DC60895833849F4B2
:100D40000E94601D80FF31C083E52ED693D683E5D7
:100D5000F2CF843849F40E94601D82FF26C087E4E8
:100D600023D688D687E4E7CF9CEF980F913A18F303
:100D700090E2980F983048F4877091E001C0990F85
:100D80008A95EAF7892F41D6D7CF9BE5980F933004
:100D900028F490E080E00C94781D0895885A8731FB
:100DA00020F490E080E00C948E1D08951F93CF9363
:100DB000DF93182FEB0135DF209731F4812FAEDF61
:100DC000DF91CF911F9108958FE99FE00197F1F78F
:100DD00000C000002197F0CF70E060E0893311F48B
:100DE00060E570E0E3CF0895882311F008D642C68D
:100DF0000895882311F009D63DC60895B0E0A0E01B
:100E0000E4E0F7E00C9446226C01D62FC72FFC01DA
:100E10001281F580F2949FE0F922E7D5E82E88232D
:100E2000A9F0E12E112391F08C2F807F803421F0E6
:100E300080E28D0F8830C0F08091980282FF14C04C
:100E400082E05FD6D2D591E0E82EE926BC2EB2949E
:100E50008FE0B822FBE0FB1508F45DC0EB2DF0E05D
:100E6000E15AFC4D0C943022E12CF0CF0C2F0F7086
:100E7000C07F11F00295007F112381F0002349F01B
:100E800080E28D0F883010F0D11105C0802FB7D5CA
:100E9000F1D58D2F3AC0802FC2D5FACF8D2F3EDFEE
:100EA000002309F438C080E28D0F883010F0D11192
:100EB00003C0802FAAD502C0802FB7D5DBD52BC0A9
:100EC0000C2F0F70C07FC03211F00295007FDD2320
:100ED00081F0D13009F452C0112309F45CC0FF2025
:100EE00009F452C0F601858180FFD3CF8F708583CE
:100EF0004BC08091980282FD28C0112341F000234D
:100F000019F0802F7CD5B6D580E08BDE04C080E060
:100F100005DF0111CECFEB2DE850FF0B349718F40D
:100F20000E94601D2FDEEE2059F05BD580FD08C0C9
:100F3000F601128250D5C3D1C60128D14CD5CAD1F1
:100F4000CDB7DEB7E9E00C946222112369F0F1100D
:100F500004C075D5802B48DFDECF21E0F212F9CF37
:100F60006ED5802B72D5D7CFF11004C07AD5802FE3
:100F700040DFD1CF31E0F31671F2F8CF112331F019
:100F800085E08F1508F4C7CF802FE5CF94E09F153B
:100F900008F4C1CFECCFFF2051F3D93349F4FFEF70
:100FA00027EE33E0F15020403040E1F700C0000070
:100FB0008D2FB4DEB0CF8C2F86958695837069F027
:100FC000813009F0A8CF8D2F9C2F9370111102C092
:100FD00090E080E00E948E1D9ECF8D2F9C2F9370FD
:100FE000111102C090E080E00E94781D94CF8C2FF8
:100FF000837059F511118FCF4D2F4295469547704B
:10100000440F440F8D2F8F70042E01C0880F0A9457
:10101000EAF72D2F2071D4FF07C02FE030E001C088
:10102000220F4A95EAF72095C695C695C370822B84
:10103000C23039F040F4C13011F023D16CCF1CD153
:101040006ACF24D168CF16D166CF8695112311F0CF
:101050008C2F8170882309F45ECF4D2F42954695E1
:101060004770440F440F8D2F8F70042E01C0880FDE
:101070000A94EAF72D2F2071D4FF07C02FE030E04B
:1010800001C0220F4A95EAF72095C695C695C37010
:10109000822BC23039F040F4C13011F037D13BCF50
:1010A00030D139CF38D137CFFAD035CFCF701123E7
:1010B00021F08C2F04D18D2F4ECF8D2F9ADE8C2FC7
:1010C00009D129CFD23F49F160F4D03FB9F0D13FE7
:1010D00081F0112309F441C0F110DBCE8C2F8F7108
:1010E00020C0D33F01F1D43FA1F78091980282FD47
:1010F00022C08C2F8F71112319F313C0112341F0DB
:1011000084E08F1508F407CF8C2F8F71EFD003CFB9
:1011100095E09F1508F4FFCEF7CF8C2F8F7111113A
:10112000CFCFCDD0F8CE112321F08C2F8F71BFD02F
:10113000F2CEBAD0F0CE112339F0CF718C2FBFD0C0
:1011400063E08C2FC4D4E7CE81E0DBD4E1E0EF157F
:1011500008F0E1CE82E0D5D4DECEF1101ECF8C2F88
:101160008F71AECF0F931F93CF93DF93EC01688104
:1011700079818A8180D18C01D3D07BD0B801CE0116
:101180003DDEDF91CF911F910F910895CF93DF93B3
:10119000EC018B819C81892B29F08881998189239D
:1011A0008F3F41F4DF91CF910895CE01DBDFCE0177
:1011B00074DBF8CFCE01BBDB8111F7CF16D48823C7
:1011C00089F38A81882371F38091980282FFEACFA4
:1011D00082E097D4E7CF90E080E00E94781D90E015
:1011E00080E00E948E1D28D445C40895EDD3F3CF2E
:1011F000089512D4FBCF089592959F70963091F088
:1012000058F4925F9F70923058F4803F19F030F498
:10121000883E30F481E008959A5FF4CF843FD1F3A3
:1012200080E00895883EB0F3813FD1F7F3CFFC0111
:101230008081918117D1E0CF0895A5E0B0E0E3E28D
:10124000F9E00C944D222596E2E00C946922A6E088
:10125000B0E0EDE2F9E00C944D222696E2E00C9429
:1012600069220895FECF0895FDDF80931301B3CF67
:1012700008950895F9CF089590911301892BF4CF23
:101280000895909113018923EFCF08959091130150
:101290008927EACF0895E5CF0895FDCF0895FDDFB2
:1012A0008093120198CF089580E0F9CF089591E0DE
:1012B00001C0990F8A95EAF7892FF1CF089521E0AF
:1012C00030E001C0220F8A95EAF780911201822B4B
:1012D000E6CF089521E030E001C0220F8A95EAF7B9
:1012E0002095809112018223DACF089521E030E029
:1012F00001C0220F8A95EAF7809112018227CFCF91
:10130000089590911201892BCACF089590911201EE
:101310008923C5CF0895909112018927C0CF0895E0
:101320000895262F277091E001C0990F2A95EAF7BA
:1013300023E0769567952A95E1F7FB01EE0FFF1FF5
:10134000E60FF71FE40FF51F50E040E0682F70E054
:101350008191DF0111979B01042E02C036952795DC
:101360000A94E2F7217021952827292328272C9316
:101370004F5F5F4F4330510559F70895A82FA7706D
:1013800023E0969587952A95E1F7FC01EE0FFF1F64
:10139000E80FF91FE60FF71F50E040E080E02191D1
:1013A00030E00A2E02C0369527950A94E2F72170A4
:1013B0003327042E01C0220F0A94EAF7822B4F5FD5
:1013C0005F4F4330510559F70895262F953060F44B
:1013D000843050F434E0939FB0011124680F711DE4
:1013E00049E051E0822F9DCF0895953068F4843014
:1013F00058F444E0949F9001112469E071E0820F59
:10140000932F911DBBCF089580E00895CF92DF9276
:10141000FF920F931F93CF93DF936C010091120102
:1014200080911301082BC7E0D0E010E0FC2EC8012A
:101430000C2E02C0959587950A94E2F780FD0CC0AA
:101440002197A0F7F12C8F2DDF91CF911F910F9154
:10145000FF90DF90CF900895B6018C2FE6D50197CD
:1014600079F3F1CFCF93DF93EC01D0DFBE01DDD56F
:10147000DF91CF9108951F93CF93DF93EB0190916C
:101480000801992331F0CB01EDDFDF91CF911F915E
:101490000895882351F0CB01B9DF182F682FCE01B2
:1014A00094DFBE01812FC1D5F0CFCB019EDF182F75
:1014B000F8CF1F93CF93DF93C091140116E0809172
:1014C00015018C1304C0DF91CF911F910895D0E0D6
:1014D0001C9FF0011D9FF00D1124EA5EFE4F40811C
:1014E00051816281738184819581B1DE2196C770BB
:1014F000E6CF4091460150914701609148017091BB
:10150000490180914A0190914B01A1CE08951F930A
:10151000CF93DF9380914B01807F09F047C080918A
:101520004801882309F442C080911401C09115013B
:101530006091460170914701A0914901B0914A0123
:10154000D62FD72316E0C81789F190E0109711F035
:10155000DF3F19F401968770F6CF189F9001199F0D
:10156000300D1124F901EA5EFE4F41814713F2CF9D
:1015700040814613EFCF42814111ECCF438154812A
:101580004A1B5B0B483C510528F780914B018F703B
:10159000806180934B01F901E55EFE4F80818F7081
:1015A0008061808386E491E0F1DD83DFDF91CF917C
:1015B0001F910895A1E1B0E0E0EEFAE00C9445221D
:1015C0008C0185E0F801DE011D9601900D928A954F
:1015D000E1F7F801E28086E4C82E81E0D82E609120
:1015E000490170914A016115710509F43BC190915F
:1015F000460120914701892F82238F3F09F432C190
:1016000040815181A380B480F0904801F501E61B30
:10161000F70BFF2009F4DCC080914B01382F307F9D
:10162000E83CF10508F09AC0311169C0FE2C251381
:1016300014C0941312C0E11010C08F7080618093A9
:101640004B0157DFC601A2DD80914B01F801858374
:101650008F2D6196EAE00C946122A114B10429F067
:10166000842F85238F3F09F013C180E0F82FF1709C
:10167000DF2E80FF3AC0809114012091150136E0E1
:10168000821314C04D875E878D859E85EBDE292FE2
:1016900022952F702230F0F0243018F59F70F1F071
:1016A000F8019581907FD1F4D12C1DC090E0389F36
:1016B000F001399FF00D1124EA5EFE4F6181651340
:1016C00006C06081641303C06281E6120EC00196F9
:1016D0008770D6CF9F7011F0882331F3805E8830F9
:1016E00018F3C80153DDFD2CB3CFEE2009F4B0CFC1
:1016F00080914B01816080934B01F12CA9CF251380
:1017000006C0941304C0F801EE2009F47DC0C8019E
:101710008EDD882301F1EE20F1F080914B018032C3
:1017200068F0209146013091470138872F83198650
:10173000BB86AA868C87CE01079628DD86E0F80155
:10174000A6E4B1E001900D928A95E1F7E0DED1DEEA
:10175000FF24F3947DCFC80119DDFACF311110C0F9
:101760007A2DB98AA88A6E2D898967DD86E491E091
:101770000DDD86E0F60111928A95E9F7BADEBDCF5C
:1017800025130EC094130CC0E1100AC0F801858324
:10179000C801FCDC86E0F60111928A95E9F758CF82
:1017A000C80145DD8823B9F2EE20A9F280914B01F2
:1017B000803208F4C3CF20914601309147013A832B
:1017C00029831B82BD82AC828E83CE010196B5CF68
:1017D000E83CF10508F03AC0FE2CEE2009F4BBCF3E
:1017E000251328C0941326C080914B0180FD19C099
:1017F000982F907FB1F0F8018583903F31F0982FBA
:10180000907F905F8F70892B8583C801BFDC86E055
:10181000F801A6E4B1E001900D928A95E1F769DE46
:1018200017CF86E0F801A6E4B1E001900D928A9509
:10183000E1F70ECFC801FBDC811180CF80914B0115
:10184000816080934B01C801A1DC02CF7A2DB98A57
:10185000A88A6E2D8989F1DC86E0F60111928A95BD
:10186000E9F7DDCFEE2009F476CFC801E0DCF82EF1
:10187000882309F470CF86E0F801A6E4B1E0019076
:101880000D928A95E1F786E491E0C6D940DEC7CF94
:1018900081E08E25EBCEACE0B0E0E1E5FCE00C941D
:1018A0004C224F83588769877A878B879C87CE0124
:1018B000079680DE882369F08A859B85892B39F01D
:1018C0004F815885842F85238F3F09F067C016E02C
:1018D0005BC086E0FE013796DE01119601900D9205
:1018E0008A95E1F78A859B85892B89F38F81988575
:1018F00089238F3F61F32091150130E0C9010196E2
:1019000087709927409114014817190669F471DC12
:10191000109215011092140186E0E6E4F1E0DF0177
:101920001D928A95E9F7D3CF96E0929FD001939FBD
:10193000B00D1124AA5EBE4FFE01319601900D92AA
:101940009A95E1F780931501B4DDC1CF819FC00165
:1019500011248A5E9E4F2EDE8823E1F0E09114016F
:101960001E9FF0011124EA5EFE4F40815181628189
:101970007381848195816BDC8091140190E00196E4
:10198000877099278093140180911401909115011B
:101990008913DCCF2C96E3E00C94682269857A8564
:1019A0008B859C8554DC93CF682F80916400909147
:1019B00065000C94EC1D0895682F8091640090914F
:1019C00065000C94EE1D089580916400909165006F
:1019D0000C94F01D089580914C0185958595859511
:1019E000089580914C018770089590914C019770F3
:1019F00081E009F480E00895809157010895909165
:101A00005701892B80935701089580959091570134
:101A1000982390935701089510925701089590913B
:101A20005601892B80935601089580959091560117
:101A3000982390935601089510925601089580912D
:101A40004D0108950895FECF08959091980292FF58
:101A500007C090914D01981719F080934D01F3CF75
:101A6000089580914D01882321F010924D0180E06E
:101A7000EACF0895E0916400F091650080915701EC
:101A80008083E0916400F09165008081909156011F
:101A9000892B808390914D01992379F0E091640026
:101AA000F09165008081892B808380916400909102
:101AB00065000E94A41D8111D4DF80916400909183
:101AC00065000C946D1D08950895FECF08959091C2
:101AD000980292FF0FC098E0899F90011124622B19
:101AE00060934C01ECDB80914C0185958595859543
:101AF000ECCF0895E4CB089510924C0180E0E5CF3F
:101B0000089590914C018095892380934C01282F52
:101B1000277081F4282F082E000C330B9217130620
:101B200049F09091980292FF05C08595859585951D
:101B3000D1DBE2CF08959091980292FB222720F901
:101B4000281759F080FB92F99093980280919702A0
:101B5000909198023DD082E0D4CF08958091980270
:101B600082FB882780F991E08927E5CF089581E0FD
:101B7000E2CF089580E0DFCF08956FEF7FEF90E030
:101B800080E00C940E23089590E080E00E94F02203
:101B9000883E9E4F19F40C945317089580E00895E1
:101BA00082E090E00C94E322089583E090E00C94AE
:101BB000E3220895CF9384E090E00E94E322C82FAF
:101BC00082E290E00E94E322982F8C2FCF9108951B
:101BD000CF93C92F682F84E090E00E94F5226C2FEC
:101BE00082E290E00E94F522CF910895AB01BC0102
:101BF0008FE090E00C9406230895AB01BC0183E1D3
:101C000090E00C940623089560E070E0CB01F5CFDE
:101C1000089560E070E0CB01E9DFF6CF089568EE4B
:101C20007EEF90E080E00E940E2360E082E090E092
:101C30000E94F52260E083E090E00E94F52210927D
:101C4000130160E084E090E00E94F52264E082E20B
:101C500090E00E94F52260E085E090E00E94F5228D
:101C600060E086E090E00E94F5226FEF87E090E070
:101C70000E94F52240E050E0BA0188E090E00E9426
:101C8000062360E08DE090E00E94F52240E050E005
:101C9000BA0188E190E00E94062360E087E190E0CD
:101CA0000E94F52240E050E0BA018CE190E00E94F1
:101CB000062370E060E080E290E00E940E2340E0A6
:101CC00050E0BA0188E190E00E94062380E00E9483
:101CD0006C170E949A179DCF0895A1CF0895682F81
:101CE0008EE090E00C94F52208950E94361E6093D9
:101CF000650170936601809367019093680160931A
:101D0000610170936201809363019093640108956F
:101D10000E94361E6093650170936601809367018F
:101D20009093680160935D0170935E0180935F0101
:101D300090936001089508950895FECF0895089541
:101D4000FECF089583EF90E10E94561DF4DFF5CF9A
:101D5000089581E00895FDCF089508950895FDDF69
:101D6000FDCF089556D20C94C10508950E94231EFC
:101D70000E94A51700D3F6DF5BD70E94901BE0CF2F
:101D80000895AAE0B0E0E7ECFEE00C94442207D30B
:101D9000C82E8111AADF88E5A82E81E0B82E10E0B8
:101DA00000E0902E802F4ED2E82EF501F1905F01D9
:101DB000F816A9F18091690181FD4AD28F2D8E25F7
:101DC000D12CFF24F394982F9F2121F1C4DF882385
:101DD00099F0DE829F82EF2081E009F480E088871D
:101DE0000E942A1E8160782F9A8789874E815F81A1
:101DF00068858A850E94DA05F801E85AFE4F8081DD
:101E0000F826F08281E0C11001C080E02A96EBE064
:101E10000C946022D394FF0CF4E0DF12D4CF0F5F58
:101E20001F4F0530110509F0BCCF8FEF89838A83DE
:101E30001B820E942A1E8160782F9D838C8349819A
:101E40005A816B818D810E94DA05DCCF9ADF2CD715
:101E50000E94FF1B81115CDF0C94D0050895CF9385
:101E6000DF93E7D0EC01811522E59207E8F58115B3
:101E700031E5930708F0ABC0883E910510F5803E30
:101E8000910570F5883A910570F4853A910508F04E
:101E900077C08130910521F1009711F1049700F589
:101EA000D0E0C0E01DC08F3B9105D0F7C85AD0E00C
:101EB000CC0FDD1FC555DF4F0990D881C02DD464EC
:101EC0000FC0811540E5940708F065C0C11580E496
:101ED000D80708F05DC0CE019A9581159F4100F7A3
:101EE000CE01DF91CF910895811536E5930718F55E
:101EF000811545E5940708F082C0C11584E5D8072F
:101F000008F078C09C2F969596959E0123703327F4
:101F1000C115D34508F460C0C1E0D0E002C0CC0FC9
:101F2000DD1F2A95E2F730E2939FC0011124C82BF0
:101F3000D92BDA68D5CFC1158AE5D80778F4C11551
:101F400099E5D90708F064C0C11528E5D20708F45F
:101F5000A7CFDC2FCC27C06FD06AC2CFCE0190565E
:101F60008115904208F09CCF8D2F8F71F9D090E0B1
:101F7000982F882788279F719C012C2BE90146C048
:101F8000C55AD0E0C752DF4FC881D0E0D064A8CF97
:101F9000DF70D06AA5CFE4E096958795EA95E1F7E2
:101FA00083702C2F26952695237040E2249F900164
:101FB0001124382B8C2F8370C1E0D0E002C0CC0FED
:101FC000DD1F8A95E2F7C22BD32BDC6889CFD82F8F
:101FD000CC27C16FD06A84CFC1E0D0E002C0CC0F63
:101FE000DD1F2A95E2F720E2929FC0011124C82B41
:101FF000D92BEBCFDC2FCC27C46FD06A71CFB0D0F8
:10200000C82FD0E0DC2FCC27CC27DF71D06268CF7F
:102010008C2F8F70A5D034E0D695C7953A95E1F70F
:10202000CF709C2FEC01D0695BCF0E94DD1A17CFD7
:10203000089582389105B1F1B0F48133910509F426
:1020400075C048F48932910509F469C08A32910556
:1020500009F473C008958533910509F459C0893393
:10206000910501F10895833E9105A9F138F4803E70
:102070009105F9F0823E910549F10895863E91055A
:10208000A9F1873E9105C9F1843E910519F520918A
:10209000980221FF1FC08091970284FD14C087EE33
:1020A00090E00895209197022370A1F080EE90E0D7
:1020B00008952091970220FD47C03091980230FF8B
:1020C00009C024FF44C090E080E004C02091970242
:1020D00022FDF7CF08952091970222FD3BC0309159
:1020E000980230FDE3CF24FFF5CFEDCF209197028A
:1020F00023FFF0CF24FDE7CFD2CF2091970223FD1D
:102100002CC03091980231FFEECF84EE90E008951C
:102110002091970225FFDECF89E290E0089520917B
:10212000970225FFD7CF85E390E00895209197028D
:1021300026FFD0CF8AE290E008952091970226FFF3
:10214000C9CF81E390E0089589E390E0089583EE9C
:1021500090E0089582EE90E0089586EE90E0089574
:102160009091970292FF06C0282F28712830F9F429
:10217000877F846093FF06C0282F28712831F1F4EF
:10218000877E84612091980220FF06C0382F387125
:102190003830D9F4877F816021FF06C0282F28714D
:1021A0002831D1F4877E816194FD877E0895282FA0
:1021B00024712430F9F68B7F8860DCCF282F2471BE
:1021C000243101F78B7E8861DDCF382F31713130BA
:1021D00019F78E7F8860E0CF282F2171213121F7F8
:1021E0008E7E8861E1CF80E00895C7CC0895D7D076
:1021F0008FE39CE90197F1F700C00000D0D080E0A8
:1022000021D080FF03C0F1DF0C94751E0895EFCF3D
:102210000895BADC811101C060DDC2DC80936901E0
:10222000C9DC9093980280939702F1DFBEDC22D83C
:102230008091120132C808950895FECF08950C943C
:10224000BF030895E82FF0E0E256FD4F8081089526
:10225000089580EA8A95F1F7089500C00895F9CFAE
:102260000895F894E82FE295EF70F0E031A9282F57
:102270002F7081E090E001C0880F2A95EAF7982F2F
:102280009095932391AB92A9892B82AB7894089572
:10229000CF93DF93C0EED0E089918F3F09F0E1DF6B
:1022A00080E0C53ED807C1F787E0DBDF82E3D9DFF6
:1022B00083E3D7DF84E3D5DFDF91CF910895B0E0EA
:1022C000A0E0E5E6F1E10C944722EC01D62E062FC2
:1022D00010E0C80180529F4F7C01FC0180818F3F3C
:1022E00009F442C0F894E82FE295EF70F0E091A96C
:1022F0008F7021E030E001C0220F8A95EAF7892F24
:10230000822B81AB82A92095282322AB7894A5DF6C
:10231000ECEDF0E040EE50E031E0C12C21912F3F98
:1023200041F1A22FA295AF70B0E0D0968C9190E0D1
:102330002F7002C0959587952A95E2F780FD19C008
:10234000832FC82A330F4E175F0741F7F7018081AB
:102350008F3F09F086DF61E0C11001C060E08D2D84
:102360007EDFC00FD11FC882CDB7DEB7E8E00C9486
:10237000632280E0E6CF8CDF85E0EEE9F2E0DF016A
:10238000982F1D929A95E9F7E9E9F2E0DF011D9295
:102390008A95E9F785E03DD00C947C040895A5E08A
:1023A000B0E0E5EDF1E10C944A228E010F5F1F4F82
:1023B00085E0F80111928A95E9F7F12C6F2DC8019B
:1023C0007EDFF394F5E0FF12F9CF45E050E0B8016D
:1023D00089E992E00E94D622FF24F394009709F441
:1023E000F12C892B41F085E0F801A9E9B2E00190D8
:1023F0000D928A95E1F72F2D45E06EE972E089E9AB
:1024000092E008D00E947F048F2D2596E5E00C9481
:1024100066220895FF920F931F93CF93DF93F82EB8
:10242000092F162FD72FC42F222349F081E0809344
:102430006C010E942A1E90936B0180936A01809127
:102440006C018823A1F080916A0190916B010E9438
:10245000421E059760F0EF2DF02FA12FBD2FCE0F5C
:10246000DF2FD11DEC17FD0739F410926C01CDB7A9
:10247000DEB7E5E00C94662281918D93F3CF0E9444
:10248000971E74DC0C94A71E08950E94111E0E94D2
:10249000911E58DCF4DF0E94B31E61DCFCCFEF928A
:1024A000FF920F931F93CF93DF93EB01E82FD1118E
:1024B0000EC0442321F0F0E0E859FD4FE4916E2F67
:1024C0007E2F8E2FCDB7DEB7E6E00C9465220D2F60
:1024D00010E0282F30E0442329F028593D4FF9011E
:1024E000249130E0F6E0CF9FC0011124EFEFF0E03F
:1024F000BF010E94E721AB018C2F90E0880F991F4C
:10250000A5E5A49FB001A59F700D1124861B970B14
:10251000982F990F980FBF01601B710B629FD0011C
:10252000639FB00D729FB00D11248B2F9D9FB00142
:102530001124672F7727EF01C61BD70BBE01629FBF
:10254000E001639FD00D729FD00D11247F01E91A25
:10255000F108E09EB001E19E700DF09E700D112417
:10256000672F7727E61BF70BE29F8001E39F100D93
:10257000F29F100D1124E12F722F4230510599F076
:1025800048F44115510569F04130510581F0EB2FB8
:102590008D2F07C04430510569F080F04630510559
:1025A000B1F76E2F8FCFE22F7B2F812FFACFE22F43
:1025B0007D2FF7CFEB2F822F712FF3CF7B2F822F21
:1025C000ED2FEFCF41E06BCF08950895FBCF089535
:1025D000CF93DF93762FE901682F842FF7DF79837C
:1025E00068838A83DF91CF910895473908F046E9DF
:1025F000EFCF08958091A302982F9E7F61F48170A0
:1026000082608093A3028091A602873918F086E940
:102610008093A60208958031B0F381708E60F1CF6F
:1026200088E090E00C94EB220895CF92DF92EF9235
:10263000FF926B017C01DEDFB701A60188E090E02C
:102640000E940623FF90EF90DF90CF900895609155
:10265000A3027091A4028091A5029091A602E5CFF9
:102660000895E3EAF2E083E0808311828FEF8283B2
:1026700086E9838314826081718182819381D5CFC1
:1026800008958091A30280FF02C08695089580E09E
:1026900008959091A702933018F49F5F9093A7023A
:1026A000882349F06091A3027091A4028091A50251
:1026B0009091A602BACF089581E0EBCF0895909152
:1026C000A702992319F091509093A702882349F00B
:1026D0006091A3027091A4028091A5029091A6023C
:1026E000A4CF089581E0EBCF08958091A7020895CB
:1026F0008093A702662349F06091A3027091A4021F
:102700008091A5029091A60290CF089560E0F0CF4D
:1027100008958091A40208958091A5020895809162
:10272000A602089570E093C30895CF92DF92EF92CE
:102730000F931F93CF93DF93CDB7DEB7E3970FB619
:10274000F894DEBF0FBECDBF609167008091A302F9
:1027500080FF35C0E7E5F2E09E012F5F3F4F8E011D
:102760000C5C1F4FC901A4914A2F50E0DA01AA0F57
:10277000BB1FA40FB51FA855BD4FCD90DD90EC90A9
:10278000D901CD92DD92ED929D013196A017B1074E
:1027900051F720916600B3E02B9F800D911D11240D
:1027A000C1DFE3960FB6F894DEBF0FBECDBFDF9159
:1027B000CF911F910F91EF90DF90CF90089580916E
:1027C00068009091690023E0829FF0011124E85590
:1027D000FD4F891708F0BECF1182108212828F5FE1
:1027E0003396F7CF9091A30290FF0DC090916800AF
:1027F0002091690033E0939FF0011124E855FD4FCB
:10280000921710F092CF08958183608342839F5F77
:102810003396F6CFA3E0B0E0E0E1F4E10C94492276
:10282000F82E062F142FE22E8091A30280FF25C0E0
:10283000E82FE695F0E0EB51FF4F90819093CB01AC
:102840008E7F823049F49E012F5F3F4F8F2DCDDE6A
:102850004B8169818A81C6DFF092A4020093A502B0
:102860001093A602EE2049F06091A3027091A40299
:102870008091A5029091A602D8DE2396E6E00C9402
:102880006522E3EAF2E09181282F4381628188E0AA
:10289000890FC0CF089581E0F4CF0895E3EAF2E014
:1028A0009181282F4381628188EF890FB3CF0895EA
:1028B00081E0F4CF0895E3EAF2E0628128E0620F5C
:1028C00008F46FEF282F43818181A4CF089581E020
:1028D000F2CF0895E3EAF2E0628128E0621B08F497
:1028E00060E0282F4381818195CF089581E0F2CF68
:1028F0000895E3EAF2E0438128E0420F08F44FEF45
:10290000282F6281818186CF089581E0F2CF0895DA
:10291000E3EAF2E0438128E0421B08F440E0282F7C
:102920006281818177CF089581E0F2CF089520E020
:1029300071CF0895B0E0A0E0E0EAF4E10C943F220A
:10294000FC016280448081E08483E7E5F1E07490DB
:10295000E6EDF1E0E491812C75E0972EF2E0CF2EC8
:10296000DD24D394AA24AA94B12C55245A94E719AF
:102970000E2F10E080916A00881630F0D6DECDB7B9
:10298000DEB7E0E10C945B22E82CF12C82E08615A6
:1029900068F09E9CF0019F9CF00D1124E359FE4FBE
:1029A0008091A40280838091A5028183411022C07E
:1029B0009E9CF0019F9CF00D1124E359FE4F138261
:1029C000128220916800C701820F911D9C01220F85
:1029D000331F280F391F28553D4F9E9CF0019F9CA7
:1029E000F00D1124E359FE4F428161818081FDDDAC
:1029F0008394C0CF9E9CE0019F9CD00D1124C359AD
:102A0000DE4F8B818823E9F081508B83859DC00147
:102A100011246C8170E00E94E721FB01FF27E95A35
:102A2000FE4F8491E82FE719E59DC0011124B801FC
:102A30000E94E7218091A602689FB00111247A8349
:102A4000C0CF0E94BB222091A602269521582C9D22
:102A5000A0012D9D500D1124452F55278417950752
:102A60000CF0AFCF82E0861588F40E94BB22B5013E
:102A70000E94FB2188830E94BB222091A5022695FB
:102A8000622F70E00E94FB21280F29839E9CF00199
:102A90009F9CF00D1124E359FE4F12828091A602F3
:102AA000893C58F088EC9E9CF0019F9CF00D11240D
:102AB000E359FE4F8483838384CF8431A0F784E17C
:102AC000F2CFE3EAF2E080818E7F808360817181C2
:102AD00082819381AADD1092CC012FEF80E792E0F2
:102AE000215080409040E1F700C000001ECE0895C4
:102AF000E3EAF2E080818E7F80831092CC012FEF99
:102B000080E792E0215080409040E1F700C0000053
:102B10000CCE08951092CC018091C901811109C099
:102B200081E08093C9018091A30281708093C801E4
:102B3000DFCF08956091A302669570E041E050E018
:102B40008BE690E00E94C922892B19F481E08093E2
:102B5000CC010E942A1E9093C3018093C201089564
:102B60009091A30290FF29C09170811127C09260BB
:102B70009093A302662349F06091A3027091A4028E
:102B80008091A5029091A60250DD6091A302669506
:102B900070E041E050E08BE690E00E94C922892B72
:102BA000A1F01092CC0181E08093C5014091A60272
:102BB0006091A5028091A402BACE0895883010F0E9
:102BC0009E60D6CF880F982BD3CFB4DFECCF682F81
:102BD0009091A302969581E0890F883008F081E0FA
:102BE000BFCF089581E0F3CF0895682F9091A3029D
:102BF00096958FEF890F09F487E0B2CF089581E0B1
:102C0000F4CF089561E0ACCF0895E3EAF2E080816B
:102C1000816080838695F6CF08958091A30280FF1E
:102C200002C04FCF0895F1CF089560E099CF089585
:102C30008091CA01811127C00E94C40D811102C078
:102C40004CD80FDDEDDC6093A3027093A402809357
:102C5000A5029093A6026E7F51F403DDE1DC609340
:102C6000A3027093A4028093A5029093A602C2DCF3
:102C70001092CC018091A30280FF02C08695D5DF1F
:102C800081E08093CA010895E3EAF2E080818160E7
:102C900080838695CACF08951092C9018091C8019A
:102CA0008111F2DF47CF08950F931F93CF93DF93E6
:102CB0008091CC01882309F43DC09091CB01809193
:102CC000A3028695891B8093C401C0EDD7E005EE71
:102CD00012E1923061F463E00E94DB21E92FF0E021
:102CE000EC5AFE4FE491CE2FD0E00AE914E1809136
:102CF000C501882359F01092C501ACD79093C30148
:102D00008093C2011092C7011092C601A3D7E0912F
:102D1000C201F091C3018E1B9F0B8F3F9F4750F460
:102D2000CE0FDF1FD093C301C093C20182EC91E0AC
:102D3000F8010995DF91CF911F910F910895FA0144
:102D4000811101C0FB01099508959BDC823028F0B8
:102D500098DC873010F446CF089582E053CF089571
:102D60001F93CF93DF93EC01FB01128111111AC065
:102D70000E94FC0C8272C93CFCE5DF0709F45FC0CD
:102D800050F5C53CECE5DE0709F454C080F4C33CC3
:102D90009CE5D90709F443C008F047C0C23CDC45B4
:102DA000E1F111E0812FDF91CF911F91089546E766
:102DB00054E167E674E1C73C9CE5D907A1F14BE417
:102DC00054E168E574E1C83CDC4568F147E654E14C
:102DD00066E774E128C0CD3CFCE5DF07A9F1A0F46B
:102DE00042E753E16CE573E1CB3CECE5DE07D9F05B
:102DF00045E854E164E974E1CC3CDC45A0F04CE5E5
:102E000053E162E773E10FC0C63D8CE5D80750F28D
:102E1000CD35DD4531F699DFC5CFFFDEC3CF4FEFAE
:102E200055E162EF75E18BDFBDCF42EF55E16FEF0A
:102E300075E1F9CF48E554E16BE474E1F4CF44E97E
:102E400054E165E874E1EFCF81E0DCDEABCFA79A17
:102E500045B34F7755B35068EFB7F8949B01220FF5
:102E6000331F260F371F280F391F2817390741F442
:102E7000EFBF8FE594E00197F1F700C000000895DF
:102E8000DC016D91CD0178E055BB000000C067FF0B
:102E900045BB660F000000C000C000C045BB00C0BD
:102EA0007A9591F7E2CF83E290E00E94E3228232AA
:102EB00089F484E290E00E94E322863059F485E2AE
:102EC00090E00E94E32291E0813009F090E0892FA8
:102ED0008170089580E0FCCFCF93C82F6FEF8111F0
:102EE00062E283E290E00E94F5226FEFC11166E09A
:102EF00084E290E00E94F5226FEFC11161E085E26B
:102F000090E00E94F522CF910895089586E290E026
:102F10000E94E322682F70E090E080E00895089519
:102F2000CF93C62FFCDF6C2F86E290E00E94F52243
:102F3000CF91089580E0D0DF60E070E0CB01F0DF5A
:102F4000C2D292D381E0C8CF0895DFDFDFDFE7DFB1
:102F5000AADF811101C0EECF0895CF93FB01C2819A
:102F6000CC2301F19C0122513F452031310518F558
:102F7000825189D3C0E08C2FCF91089581E00E94C7
:102F80005F0943E062E081E00E947404F3CF81E0D6
:102F90000E946A0943E062E081E00E947404EBCF82
:102FA00082E0F6CF8031FFE59F0789F381319F45AD
:102FB000B9F3C1E0E0CF8031EFE59E07F9F281314E
:102FC0009F45C9F682E0DBCF2FEFFC0120830895F7
:102FD000CF93DF93EC018881813891F028F4803819
:102FE00061F0DF91CF910895823861F08338C9F79D
:102FF00090DB898391DB8A83F4CF91DB8983F1CFE6
:1030000040DBFCCF72DBFACFCF93DF93EC018881FA
:103010008138B9F028F4803861F0DF91CF910895BC
:103020008238C1F08338C9F77ADB482F6A818981F9
:1030300006C0D98171DBC82F6CDB4D2F6C2F77DC7C
:10304000ECCF8981F2DD8981811102C051DDE5CFAC
:103050001BDEE3CF89815ADBE0CFEF92FF920F9323
:103060001F93CF93DF93EC01062FDC01ED91CD018F
:10307000E150E33108F098C0F0E0E559FC4D0C94C4
:103080003022198289E08A83602FCE0148D7CDB7DC
:10309000DEB7E6E00C9465228981823061F08330EE
:1030A00061F08130C1F4E2D50E9436226A837B83CD
:1030B0008C839D83E9CF2ADFF7CF7E01B2E0EB0E50
:1030C000F11C10E0812FBED8F70181937F011F5FB3
:1030D0001530C1F7D9CF602FCE0176DFD5CF8981EA
:1030E0008230C9F76A817B818C819D810E94362262
:1030F00017DFCACF4B816A818981A9D19827892797
:1031000098279D838C83C0CF2C813D813227232734
:1031100032274B816A818981BBD1B6CFD4D1B4CF5C
:1031200073DFB2CF55DFB0CF92DAAECF53D28983FF
:10313000ABCF52D29827892798279A838983A4CF27
:103140006B8170E089819A81AE014C5F5F4F982757
:103150008927982744D298CF6B8170E089819A8122
:10316000AE014C5F5F4F9827892798275BD28CCFA1
:103170007BD28ACF59D1DBCF6B8170E089819A8174
:10318000AE014C5F5F4F982789279827D3D17CCF1A
:103190006B8170E089819A81AE014C5F5F4F982707
:1031A00089279827E9D170CF8FEF88836DCFCF9390
:1031B000DF93EC01FB018281882309F433C1C33022
:1031C000FDE5DF07C0F5CA3F9CE5D90730F49E0155
:1031D00022503C4524313105B0F50E94DA0D909320
:1031E000980280939702C1318CE5D80709F4EEC0AC
:1031F00008F069C0C930ECE5DE0709F4D5C0C8F5B0
:10320000C5308CE5D80709F4C7C000F5C330ECE53C
:10321000DE0709F4B9C008F0BBC0C230DC4509F4D0
:10322000ADC080919702909198020E94E80D0E9493
:10323000F90880E008C0C136EDE5DE0771F2C53A55
:10324000FDE5DF0751F2DF91CF910895809197025C
:103250008062C7309CE5D90709F493C0809197023A
:103260008061C830DC4508F48CC08091970280648E
:1032700088C0809197028B7FCD30FCE5DF0709F491
:1032800080C098F4809197028E7FCB309CE5D9075F
:1032900009F477C0809197028C60CC30DC4508F44B
:1032A00070C0809197028D7F6CC0809197028F7E55
:1032B000CF30FCE5DF0709F464C008F47BC08091DF
:1032C00097028F7D5EC0CD3F9CE5D90709F47AC097
:1032D00050F5C531FCE5DF0709F486C098F480910C
:1032E0009702837FC3319CE5D90709F44AC008F4EB
:1032F00071C00E94F90890919702892F97FB87F976
:1033000080583FC0CB3FFCE5DF0709F449C008F017
:1033100055C0809198028160CA3FDC4509F081CF99
:10332000809398027ECFC130EDE5DE0709F468C0D6
:10333000A8F4CF3F8CE5D80709F452C080919802D9
:103340008360C115DD4560F380919802982F9095B8
:1033500091708E7F892B90FB81F9E2CFC136EDE52C
:10336000DE0709F451C0C53AFDE5DF0709F453C093
:10337000C230DD4509F055CF80E043C0809197020F
:103380008160809397024DCF809197028260F9CF40
:10339000809197028460F5CF809197028860F1CF89
:1033A000809198028260BCCF0E94F90880919702B8
:1033B0008068E7CF80919702877FE3CF8091980262
:1033C0008E7FAECF809198028D7FAACF8091970299
:1033D0008F7BD7CF0E94F908809197028F77D1CF4A
:1033E000809198028C7F9CCF8091970282FB9927D5
:1033F00090F921E0922790FB82F990FB83F9C1CFED
:1034000081E00E946F0E0DCF90919702892F8F7EE1
:1034100094FF8061B6CF90919702892F8E7F90FFA5
:103420008160AFCF81E00FCF84E0089598E0699F7D
:10343000B001112450E0440F551F640F751F98E22E
:10344000899F600D711D1124CB01879608950F93FC
:103450001F93CF93DF938430C0F46530B0F44430D1
:10346000A0F4E4DF8C010E94E322C82FD0E0DC2F1F
:10347000CC27C80101960E94E3229E01282BC90196
:10348000DF91CF911F910F91089590E080E0F8CFE8
:103490000F931F93CF93DF93122F032F843070F479
:1034A000653060F4443050F4C1DFEC01602F0E94BD
:1034B000F522612FCE0101960E94F522DF91CF9176
:1034C0001F910F910895AF92BF92CF92DF92EF922A
:1034D000FF921F93CF93DF9384E5C82E80E0D82E10
:1034E000D0E07601C0E013C0F50125913491412F61
:1034F0006C2F8D2FCDDF82E0A80EB11C1F5F143022
:1035000099F788E0E80EF11CCF5FC53019F057013C
:1035100010E0EACFDF5F88E2C80ED11CD43009F793
:10352000DF91CF911F91FF90EF90DF90CF90BF90F0
:10353000AF900895EF92FF920F931F93CF93DF9375
:10354000EC018A017C01E60EF71ECE018796CE15AE
:10355000DF0521F4CDB7DEB7E6E0B7C7C03AD10545
:1035600040F40E94E322F80180830F5F1F4F2196F1
:10357000ECCFF8011082F9CFB0E0A0E0E1ECFAE185
:1035800086C77C016A018C01060F171FEC01CE0172
:103590008796C017D10721F4CDB7DEB7E8E093C70F
:1035A000C03AD10540F4FE01EE19FF09EC0DFD1DF6
:1035B00060810E94F5222196EACF462F843038F4AC
:1035C000753028F4643018F4672F41CF089590E0E7
:1035D00080E0089580E1089589E393E00895EF92F3
:1035E000FF920F931F93CF93DF93EC018A017C012D
:1035F000E60EF71ECE0189539F4FCE15DF0521F44D
:10360000CDB7DEB7E6E061C7C93323E0D20738F4AF
:10361000DAD7F80180830F5F1F4F2196EBCFF801B7
:103620001082F9CFB0E0A0E0E7E1FBE130C77C0118
:103630006A018C01060F171FEC01CE0189539F4FC1
:10364000C017D10721F4CDB7DEB7E8E03CC7C933D6
:1036500023E0D20738F4FE01EE19FF09EC0DFD1D41
:103660006081C3D72196E9CFCF93DF93C7ECD0E039
:1036700060E0CE01BAD72196C11584E0D807C1F722
:10368000DF91CF910895A4E0B0E0E8E4FBE100C74A
:10369000F82E8FE08F1530F18FEF93E094D78111E2
:1036A00021C007EC10E0F11020C019821A821B82A1
:1036B0001C82DD24D39478018FEFE81AF80AC80140
:1036C00082D789831A82882369F09FEF980F9330FD
:1036D000C0F48A83D9820E5F1F4FC70174D78B83D2
:1036E000811110C02496E7E0EFC6011584E01807A9
:1036F000C9F3C80168D7811101C0FA940F5F1F4F49
:10370000D2CF8701CE0101960E94B705D4CF8FE8B2
:1037100091E00197F1F700C00000089581E008955D
:10372000FF920F931F93CF93DF9382E08093CF019B
:103730000FEF10E0CDEFD0E0AE01D80121E030E096
:103740008D91E82FE295EF70F0E0F1A88F70B9014C
:1037500001C0660F8A95EAF7962F90959F2191AB4D
:1037600082A9862B82ABFA018191AF01E82FE29505
:10377000EF70F0E0F1A88F70B90101C0660F8A9573
:10378000EAF7962F90959F2191AB82A9862B82AB69
:10379000F1E0A130BF07A1F6BADF6091CF0142EDA1
:1037A00051E0FA018E2F841B861720F0CDB7DEB7CB
:1037B000E5E08CC6D8012D918D01A22FA295AF70A6
:1037C000B0E0D0968C9190E02F7002C095958795CF
:1037D0002A95E2F781709991A92FA295AF70B0E078
:1037E000D0962C9130E09F7002C0359527959A9520
:1037F000E2F790E020FD92E0892B8193D3CFB0E0F7
:10380000A0E0E4E0FCE143C6F12CE12C82E0C82E0C
:10381000D12C8091CF01F81628F08E2DCDB7DEB7D0
:10382000E8E051C60F2D10E0F801E150FF4F808114
:10383000E82FE295EF70F0E0E0A9F0E08F7002C0B1
:10384000F595E7958A95E2F7E170D801A350BF4F4F
:103850002C91A22FA295AF70B0E0D0968C9190E001
:103860002F7002C0959587952A95E2F780FD3FC09D
:1038700080E08E2BD801AE52BE4FEC919E2F9370FC
:10388000981799F1EE0FEE0FE82BEC93EF70F0E044
:10389000E351FF4FE801C053DE4F80819881890FCB
:1038A000888320E082305CF0F801E353FE4F808192
:1038B0008F5F808360E08F2D0E94D10321E088819B
:1038C0008F3F5CF4F801E353FE4F80818150808389
:1038D00061E08F2D0E94D10321E08881082E000C29
:1038E000990BB60188D58883E22AF39492CF82E0BF
:1038F000C0CFCF93DF93EB0186319C4511F50E9439
:10390000FC0C9A81992399F08A7A91E009F490E06D
:103910009093D401811109C089E20E94D40C0E94C5
:103920003A0D80E0DF91CF91089585E3F6CF809145
:10393000D401811104C089E20E94DC0CF0CF85E340
:10394000FBCF81E0EFCF0F931F93CF93DF93C42F73
:10395000D22FFC0182818823C1F04093D7017AD114
:103960009093D6018093D50180E28C0F883040F48B
:10397000C77081E001C0880FCA95EAF70E94F4067B
:10398000DF91CF911F910F9108951091D7011413DA
:1039900031C08091D5019091D60174D1883C9105B8
:1039A00048F5C0E2CD0F1D17B9F080E2810F8830D5
:1039B00040F4177081E001C0880F1A95EAF70E9461
:1039C000F906C83048F481E09D2F977001C0880F38
:1039D0009A95EAF70E94F406802F0E94EC06C83000
:1039E00078F6D77081E001C0880FDA95EAF70E9477
:1039F000F906C6CF80E28C0F883010F6C77081E0E0
:103A000001C0880FCA95EAF7F2CF0F939C01CB0152
:103A1000233F4CE5340751F1A0F4283DFCE53F0776
:103A2000F9F0293D4CE53407C9F1273D3C4589F4BF
:103A300006E221EE41EE67ED7CE585DF80E00F9147
:103A40000895253FFCE53F07E9F0B0F0263F3C45EF
:103A5000F9F0FC018281882339F11092D701EFCF70
:103A600007E225EE45EE68ED7CE5E7CF06E221EEC4
:103A700040EE63EF7CE5E1CF07E225EE44EE64EF34
:103A80007CE5DBCF06E221EE42EE65EF7CE5D5CFAB
:103A900007E225EE46EE66EF7CE5CFCF08E221E0B7
:103AA00045EE69ED7CE5C9CF81E0C9CF9093030174
:103AB0008093020108959093DD018093DC010895C5
:103AC000E091DC01F091DD01309729F00190F08167
:103AD000E02D0995089580E00895E091DC01F091D2
:103AE000DD01309721F00280F381E02D09950895E2
:103AF0002091DA013091DB012817390771F090939A
:103B0000DB018093DA01E091DC01F091DD01309777
:103B100021F00680F781E02D099508952091D801C4
:103B20003091D9012817390771F09093D90180930A
:103B3000D801E091DC01F091DD01309721F00084A3
:103B4000F185E02D099508959C012E5F3F4FAC0152
:103B5000485F5F4F80E02417350709F40895F901A5
:103B600091919F019923B9F38F5FF5CF662349F0B7
:103B7000FC01329608962191261729F0E817F907DB
:103B8000D1F780E0089581E008959C01FC01329610
:103B90009FEF80E04191461751F09F3F19F441118A
:103BA00001C0982F8F5F8630A9F79F3F09F40895D1
:103BB000290F311D97FD3A95F90162830895FC01A3
:103BC000329608962191261303C0DF0111971C92AB
:103BD000E817F907B9F70895D8CF0895F0CF0895F9
:103BE000029626E0FC0111922A95E9F708950895BE
:103BF0000895FECF089508950895F9CF0895CF93BD
:103C0000FADF0E94CF11F8DFC0E08C2F0E94221152
:103C1000811105C0CF5FC530C1F7CF91089581E014
:103C2000FCCF84B7806884BF84B7806884BF089560
:103C30008091E00181110C94F20408950E94F9082A
:103C40000C94F80408958BE083BF8AEF8CBF82E068
:103C500089BF08952FB7F8948091DB029091DC0220
:103C6000A091DD02B091DE022FBF08952FB7F89426
:103C70006091DB027091DC028091DD029091DE02A6
:103C80002FBF08959C014FB7F8948091DB0290916B
:103C9000DC02A091DD02B091DE024FBF821B930BCC
:103CA000089578941F921FB61F9211248F939F93AB
:103CB000AF93BF938091DB029091DC02A091DD0273
:103CC000B091DE020196A11DB11D8093DB0290939D
:103CD000DC02A093DD02B093DE02BF91AF919F9111
:103CE0008F911F901FBE1F90189588E198E00FB626
:103CF000F894A89581BD0FBE91BDA895F894D8E021
:103D0000CEE528E3299320E0299314BEFFCF089540
:103D100088E198E00FB6F894A89581BD0FBE91BDDB
:103D2000FFCF98DF9093DF018093DE01089528D3C1
:103D30008B9A80E0815019F48B9878940895A89517
:103D4000EFE9FFE03197F1F700C00000F3CF18D1A1
:103D5000B2DE2FEF80E792E0215080409040E1F703
:103D600000C00000089580910603882339F1109265
:103D7000060370DF9093DF018093DE018091E00104
:103D8000882339F01092E00159DF8091E001811120
:103D900019C00AD280910C03882329F08091EA028D
:103DA00084FD0E94260F66D0FFD180910C038823EA
:103DB00021F08091F60284FDD8C008958091E00141
:103DC0008823F1F035DF1BDF8823B9F3F89421B3A2
:103DD000939A822F8C6081BB92B33CE0932792BB75
:103DE0004FE788E391E0415080409040E1F700C008
:103DF000000082B3832782BB21BB939878940895F7
:103E00008091DE019091DF013DDF069708F4BDCF80
:103E100081E08093E0010CDFB8CF80919602089595
:103E200008959091E601981307C02091E401309124
:103E3000E50126173707A1F08093E6017093E501AD
:103E40006093E4018093E1017093E3016093E201E8
:103E50008091230384FF04C063E081EE91E09CC164
:103E60000895BC0184E0DDCF0895BC0183E0D9CF83
:103E700008950895CF93DF93CAE0D0E08091EA02DD
:103E800084FF19C08091130290911402981781F059
:103E900028E0829FC001112468E08B5E9D4F78D19D
:103EA0008091130290E001968F70992780931302FE
:103EB000DF91CF91089578D18FE99FE00197F1F7D5
:103EC00000C000002197D1F6F3CFCF93DF93EC0130
:103ED000A0911402B0E0CD0101968F709927209136
:103EE0001302281779F093E0AA0FBB1F9A95E1F708
:103EF000AB5EBD4F98E0FE0101900D929A95E1F7FF
:103F00008093140251D1B6DF88E0FE01ABE0B2E04D
:103F100001900D928A95E1F7DF91CF9108950F936B
:103F20001F93CF93DF93EC016032C1F48C01005EEC
:103F30001F4F01C039D18091F60284FFFBCF68E0AA
:103F4000CE012ED12896C017D107A9F78091F6028D
:103F500084FF09C060E090E080E022D1DF91CF9142
:103F60001F910F91089520D1F1CF8091EA01803205
:103F700031F460E28BEE91E070D81092EA0108957E
:103F80008CE690E00895FC01808180768032F1F427
:103F90008181813061F484819581892BB9F48BE032
:103FA00092E0909308038093070388E0089582309D
:103FB00041F485E992E0909308038093070381E040
:103FC00008958A3029F483818093950280E00895D2
:103FD0008930E1F7828193818115924069F484816F
:103FE0009581892B49F481E08093E901868197814D
:103FF0009093E8018093E7018FEF0895FC01809191
:10400000E7019091E801892B61F08091E90181300D
:1040100041F49081909396021092E8011092E7018A
:1040200008958FEF0895683019F01092EA0108950D
:104030002091EA012931C8F7FC01A22FB0E0A55177
:10404000BE4F089631913D93E817F907D9F7285FDD
:104050002093EA010895FC018381833089F130F4D3
:104060008130F1F0823021F180E00895813209F44D
:1040700041C08232C9F7248135812130310509F4EC
:1040800057C02115310509F44BC02230310561F7C5
:104090008BE194E0909308038093070382E30895F3
:1040A00083EC93E0909308038093070382E10895E3
:1040B00088E693E090930803809307038BE50895C7
:1040C0008281813079F0882329F0823069F685ED8C
:1040D00093E0E8CF85EF93E0909308038093070384
:1040E00084E0089589EE93E090930803809307039A
:1040F0008AE008958281813081F0882331F0823016
:1041000009F0B2CF83EB93E002C08AE793E090938B
:1041100008038093070389E0089583E993E0F7CFCC
:104120008DE494E0909308038093070380E408955E
:1041300029EF33E0309308032093070308951F937A
:10414000CF93DF93E82F792F162FEA01888184FF20
:104150001CC0298188E828272983CE010296DC012A
:104160002E2F372F512F5E0FF90121912D939F0193
:10417000452F4E1B1416C4F3612F0E947A021C5F58
:104180001883DF91CF911F9108958AE58883E5CF49
:104190004AEE52E0D4CF089543E253E0D0CF0895E1
:1041A00046EF52E0CCCF0895CF93DF93609109039F
:1041B000635067FD11C080910503CCE0D0E0C81BBF
:1041C000D109C35FDC4F80910403803108F053C0F4
:1041D000CE0129DF109209038091790084FF3EC04F
:1041E000809178008F3FD1F1C82F893008F0C8E066
:1041F000982F9C1B909378009091DF0228E89227DB
:104200009093DF028823E9F08091070390910803DF
:104210002091030326FFABC0FC012C2FA0EEB2E0DF
:1042200034913D9331962150D9F79C012F5F3F4F38
:104230008FEF8C0F820F932F911D90930803809323
:1042400007036C2F80EE92E00E947A02CC5FCC30A4
:1042500019F08FEF80937800C093790084E190B3D8
:104260009C7031F48150D9F710920A031092020326
:10427000DF91CF9108958D3209F067C0683009F061
:10428000A9CF83EC8093DF028AE5809379001092B6
:1042900003038881807669F0CE0175DE8F3FC1F41B
:1042A000988197FD8E8190E8909303038093780026
:1042B00091CF2A811092E8029981911111C0109238
:1042C000E90228EE32E082E03093080320930703EE
:1042D0009F819111EBCF9E81981740F7892FE6CFF0
:1042E000953029F420930A0328EE32E0EDCF963082
:1042F00091F49B81913019F4CE01ADDE08C092306B
:10430000D9F39330C9F39132B9F39232A9F390E41F
:1043100090930303C3CF983089F0993019F4209318
:104320000C03E2CF9A3071F09B30F1F69BE490934E
:10433000EB02909324039093F702D6CF2CE033E066
:1043400081E0C2CF28EE32E0FBCF8091030387FFEC
:1043500041CFCE0153DE8F3F21F48EE1809379006F
:1043600039CF882309F436CF1092780033CFDC019F
:104370002C2FE0EEF2E03D9131932150E1F755CF43
:10438000CF93DF9385B7886085BF8BB780688BBF7D
:10439000CAEED2E08BE48983A3E2B3E011968C935A
:1043A0001197E6EFF2E081838AE588838C9380831E
:1043B000DF91CF910895991B79E004C0991F96175A
:1043C00008F0961B881F7A95C9F780950895AA1B57
:1043D000BB1B51E107C0AA1FBB1FA617B70710F0F0
:1043E000A61BB70B881F991F5A95A9F78095909522
:1043F000BC01CD01089597FB072E16F4009406D05A
:1044000077FD08D0E4DF07FC05D03EF49095819558
:104410009F4F0895709561957F4F0895A1E21A2EE0
:10442000AA1BBB1BFD010DC0AA1FBB1FEE1FFF1F58
:10443000A217B307E407F50720F0A21BB30BE40BA8
:10444000F50B661F771F881F991F1A9469F76095EF
:104450007095809590959B01AC01BD01CF010895A9
:10446000EE0FFF1F0590F491E02D09946927962720
:10447000692778278727782708952F923F924F92B0
:104480005F926F927F928F929F92AF92BF92CF92E4
:10449000DF92EF92FF920F931F93CF93DF93CDB7ED
:1044A000DEB7CA1BDB0B0FB6F894DEBF0FBECDBF65
:1044B00009942A88398848885F846E847D848C8436
:1044C0009B84AA84B984C884DF80EE80FD800C813F
:1044D0001B81AA81B981CE0FD11D0FB6F894DEBF22
:1044E0000FBECDBFED0108958F929F92AF92BF9204
:1044F000CF92DF92EF92FF92CF93DF93EC0168812E
:1045000079818A819B81611571058105910521F46D
:1045100064E279ED8BE597E02DE133EF41E050E087
:1045200091D049015A019B01AC01A7EAB1E4A6D0A0
:104530006B017C01ACEEB4EFA5019401ABD0DC01C2
:10454000CB018C0D9D1DAE1DBF1DB7FF03C0019794
:10455000A109B04888839983AA83BB839F77DF91A1
:10456000CF91FF90EF90DF90CF90BF90AF909F9052
:104570008F900895B9CF80E690E0B6CFB0E0A0E08C
:104580008093600090936100A0936200B0936300F9
:104590000895FC014150504030F001900616D1F7CB
:1045A0003197CF010895882799270895FB01DC01F1
:1045B00004C08D910190801921F441505040C8F7FA
:1045C000881B990B0895E199FECF9FBB8EBBE09AA3
:1045D00099278DB30895A6E1B0E044E050E024C0EF
:1045E000A8E1B0E042E050E01FC0262FE199FECFE5
:1045F0009FBB8EBBE09A01970DB2021631F02DBB26
:104600000FB6F894E29AE19A0FBE08950396272F09
:10461000EDDFEBDF252FEADF242FE8CF0196272FF0
:10462000E5DFE3CFDC01CB01FC01E199FECF06C061
:10463000FFBBEEBBE09A31960DB20D924150504057
:10464000B8F70895052E97FB16F400940FD057FD88
:1046500005D0E4DE07FC02D046F408C05095409532
:10466000309521953F4F4F4F5F4F0895909580951E
:10467000709561957F4F8F4F9F4F08950FD0A59FE5
:10468000900DB49F900DA49F800D911D112408954D
:10469000B7FFF4CFF3DF821B930B0895A29FB00105
:1046A000B39FC001A39F700D811D1124911DB29F66
:1046B000700D811D1124911D0895F894FFCF3607C8
:1046C000360760076007DB078B078B078B07F70749
:1046D00056086208620841184C186F187A18841836
:1046E0008E18901892189418D418D41896189918EF
:0C46F000A018AC18B818BA18BC18C818EC
:1046FC00010000004E010011001111010D1F651F7A
:10470C00391F351F311F101FFF5AE200E900EA0064
:10471C00B500B600B700CD008301CC008A01920130
:10472C0094012102230224022502260227022A02D6
:10473C00B300B4006F007000818283E200E900EAEC
:10474C0000B500B600B700CD008301CC008A019201
:10475C000194012102230224022502260227022AA7
:10476C0002B300B4006F00700081828307323334CF
:10477C009796959493000102020202020200FF0137
:10478C0000010000FFFF0000010001FF00616362F7
:02479C006400B7
:00000001FF
